{
  "abi": [
    {
      "inputs": [
        {
          "internalType": "bytes",
          "name": "message",
          "type": "bytes"
        }
      ],
      "name": "decodeMainMessag",
      "outputs": [
        {
          "components": [
            {
              "components": [
                {
                  "internalType": "bytes",
                  "name": "field1",
                  "type": "bytes"
                },
                {
                  "internalType": "bytes",
                  "name": "field2",
                  "type": "bytes"
                },
                {
                  "components": [
                    {
                      "internalType": "enum TEST_PROTO_GLOBAL_ENUMS.Enum1",
                      "name": "field1",
                      "type": "uint8"
                    },
                    {
                      "internalType": "enum TEST_PROTO_GLOBAL_ENUMS.Enum1",
                      "name": "field2",
                      "type": "uint8"
                    },
                    {
                      "internalType": "enum TEST_PROTO_GLOBAL_ENUMS.Enum1",
                      "name": "field3",
                      "type": "uint8"
                    },
                    {
                      "internalType": "enum TEST_PROTO_GLOBAL_ENUMS.Enum2",
                      "name": "field4",
                      "type": "uint8"
                    },
                    {
                      "internalType": "bytes",
                      "name": "field5",
                      "type": "bytes"
                    }
                  ],
                  "internalType": "struct TestInternalMsg1.Data",
                  "name": "msg1",
                  "type": "tuple"
                },
                {
                  "components": [
                    {
                      "internalType": "enum TEST_PROTO_GLOBAL_ENUMS.Enum1",
                      "name": "field1",
                      "type": "uint8"
                    },
                    {
                      "internalType": "bytes",
                      "name": "field2",
                      "type": "bytes"
                    },
                    {
                      "internalType": "bytes",
                      "name": "field3",
                      "type": "bytes"
                    }
                  ],
                  "internalType": "struct TestInternalMsg2.Data[]",
                  "name": "msg2",
                  "type": "tuple[]"
                }
              ],
              "internalType": "struct TestOneOfMessage1.Data",
              "name": "msg1",
              "type": "tuple"
            },
            {
              "components": [
                {
                  "internalType": "bytes",
                  "name": "field",
                  "type": "bytes"
                },
                {
                  "components": [
                    {
                      "internalType": "bytes",
                      "name": "field1",
                      "type": "bytes"
                    },
                    {
                      "internalType": "bytes",
                      "name": "field2",
                      "type": "bytes"
                    },
                    {
                      "components": [
                        {
                          "internalType": "enum TEST_PROTO_GLOBAL_ENUMS.Enum1",
                          "name": "field1",
                          "type": "uint8"
                        },
                        {
                          "internalType": "enum TEST_PROTO_GLOBAL_ENUMS.Enum1",
                          "name": "field2",
                          "type": "uint8"
                        },
                        {
                          "internalType": "enum TEST_PROTO_GLOBAL_ENUMS.Enum1",
                          "name": "field3",
                          "type": "uint8"
                        },
                        {
                          "internalType": "enum TEST_PROTO_GLOBAL_ENUMS.Enum2",
                          "name": "field4",
                          "type": "uint8"
                        },
                        {
                          "internalType": "bytes",
                          "name": "field5",
                          "type": "bytes"
                        }
                      ],
                      "internalType": "struct TestInternalMsg1.Data",
                      "name": "msg1",
                      "type": "tuple"
                    },
                    {
                      "components": [
                        {
                          "internalType": "enum TEST_PROTO_GLOBAL_ENUMS.Enum1",
                          "name": "field1",
                          "type": "uint8"
                        },
                        {
                          "internalType": "bytes",
                          "name": "field2",
                          "type": "bytes"
                        },
                        {
                          "internalType": "bytes",
                          "name": "field3",
                          "type": "bytes"
                        }
                      ],
                      "internalType": "struct TestInternalMsg2.Data[]",
                      "name": "msg2",
                      "type": "tuple[]"
                    }
                  ],
                  "internalType": "struct TestOneOfMessage1.Data",
                  "name": "field2",
                  "type": "tuple"
                },
                {
                  "components": [
                    {
                      "internalType": "bytes",
                      "name": "field1",
                      "type": "bytes"
                    },
                    {
                      "internalType": "bytes",
                      "name": "field2",
                      "type": "bytes"
                    },
                    {
                      "components": [
                        {
                          "internalType": "enum TEST_PROTO_GLOBAL_ENUMS.Enum1",
                          "name": "field1",
                          "type": "uint8"
                        },
                        {
                          "internalType": "enum TEST_PROTO_GLOBAL_ENUMS.Enum1",
                          "name": "field2",
                          "type": "uint8"
                        },
                        {
                          "internalType": "enum TEST_PROTO_GLOBAL_ENUMS.Enum1",
                          "name": "field3",
                          "type": "uint8"
                        },
                        {
                          "internalType": "enum TEST_PROTO_GLOBAL_ENUMS.Enum2",
                          "name": "field4",
                          "type": "uint8"
                        },
                        {
                          "internalType": "bytes",
                          "name": "field5",
                          "type": "bytes"
                        }
                      ],
                      "internalType": "struct TestInternalMsg1.Data",
                      "name": "msg1",
                      "type": "tuple"
                    },
                    {
                      "components": [
                        {
                          "internalType": "enum TEST_PROTO_GLOBAL_ENUMS.Enum1",
                          "name": "field1",
                          "type": "uint8"
                        },
                        {
                          "internalType": "bytes",
                          "name": "field2",
                          "type": "bytes"
                        },
                        {
                          "internalType": "bytes",
                          "name": "field3",
                          "type": "bytes"
                        }
                      ],
                      "internalType": "struct TestInternalMsg2.Data[]",
                      "name": "msg2",
                      "type": "tuple[]"
                    }
                  ],
                  "internalType": "struct TestOneOfMessage1.Data",
                  "name": "field3",
                  "type": "tuple"
                }
              ],
              "internalType": "struct TestOneOfMessage2.Data",
              "name": "msg2",
              "type": "tuple"
            },
            {
              "components": [
                {
                  "components": [
                    {
                      "components": [
                        {
                          "internalType": "bytes",
                          "name": "field1",
                          "type": "bytes"
                        },
                        {
                          "internalType": "bytes",
                          "name": "field2",
                          "type": "bytes"
                        },
                        {
                          "internalType": "enum TEST_PROTO_GLOBAL_ENUMS.Enum1",
                          "name": "field3",
                          "type": "uint8"
                        },
                        {
                          "internalType": "int32[]",
                          "name": "field4",
                          "type": "int32[]"
                        }
                      ],
                      "internalType": "struct TestInternalOneOfMessage1.Data",
                      "name": "field1",
                      "type": "tuple"
                    },
                    {
                      "components": [
                        {
                          "internalType": "bytes",
                          "name": "field1",
                          "type": "bytes"
                        },
                        {
                          "components": [
                            {
                              "internalType": "bytes",
                              "name": "field1",
                              "type": "bytes"
                            },
                            {
                              "internalType": "bytes",
                              "name": "field2",
                              "type": "bytes"
                            },
                            {
                              "internalType": "enum TEST_PROTO_GLOBAL_ENUMS.Enum1",
                              "name": "field3",
                              "type": "uint8"
                            },
                            {
                              "internalType": "int32[]",
                              "name": "field4",
                              "type": "int32[]"
                            }
                          ],
                          "internalType": "struct TestInternalOneOfMessage1.Data",
                          "name": "field2",
                          "type": "tuple"
                        },
                        {
                          "components": [
                            {
                              "internalType": "bytes",
                              "name": "field1",
                              "type": "bytes"
                            },
                            {
                              "internalType": "bytes",
                              "name": "field2",
                              "type": "bytes"
                            },
                            {
                              "internalType": "enum TEST_PROTO_GLOBAL_ENUMS.Enum1",
                              "name": "field3",
                              "type": "uint8"
                            },
                            {
                              "internalType": "int32[]",
                              "name": "field4",
                              "type": "int32[]"
                            }
                          ],
                          "internalType": "struct TestInternalOneOfMessage1.Data",
                          "name": "field3",
                          "type": "tuple"
                        }
                      ],
                      "internalType": "struct TestInternalOneOfMessage2.Data",
                      "name": "field2",
                      "type": "tuple"
                    }
                  ],
                  "internalType": "struct TestInternalMsg3.Data[]",
                  "name": "field1",
                  "type": "tuple[]"
                },
                {
                  "components": [
                    {
                      "internalType": "enum TEST_PROTO_GLOBAL_ENUMS.Enum1",
                      "name": "field1",
                      "type": "uint8"
                    },
                    {
                      "internalType": "bytes",
                      "name": "field2",
                      "type": "bytes"
                    },
                    {
                      "internalType": "bytes",
                      "name": "field3",
                      "type": "bytes"
                    }
                  ],
                  "internalType": "struct TestInternalMsg2.Data[]",
                  "name": "field2",
                  "type": "tuple[]"
                }
              ],
              "internalType": "struct TestOneOfMessage3.Data",
              "name": "msg3",
              "type": "tuple"
            }
          ],
          "internalType": "struct TestMainMessage.Data",
          "name": "",
          "type": "tuple"
        }
      ],
      "stateMutability": "pure",
      "type": "function"
    }
  ],
  "bytecode": "608060405234801561001057600080fd5b50612934806100206000396000f3fe608060405234801561001057600080fd5b506004361061002b5760003560e01c80633d78425a14610030575b600080fd5b61004361003e366004612305565b610059565b6040516100509190612619565b60405180910390f35b61006161214e565b61006a82610070565b92915050565b61007861214e565b6000610087602084855161008f565b509392505050565b61009761214e565b60006100a161214e565b6100a9612195565b6000808089805b6100ba8a8361278a565b811015610213576100cb818c610225565b919650945092506100dc838261278a565b90508460011415610104576100f3818c8989610270565b6100fd908261278a565b90506100b0565b8460021415610119576100f3818c89896102df565b846003141561012e576100f3818c898961032b565b600184600581111561014257610142612403565b1415610166576000610154828d610370565b91506101629050818361278a565b9150505b600584600581111561017a5761017a612403565b141561019e57600061018c828d61038f565b915061019a9050818361278a565b9150505b60008460058111156101b2576101b2612403565b14156101d65760006101c4828d6103a1565b91506101d29050818361278a565b9150505b60028460058111156101ea576101ea612403565b141561020e5760006101fc828d61048b565b915061020a9050818361278a565b9150505b6100b0565b50949a97995096975050505050505050565b600080600080600061023787876103a1565b91509150600082600716600581111561025257610252612403565b905060006102616008856127a2565b99919850919650945050505050565b600080600061027f878761054e565b9150915061028b851590565b156102ae57600184815b602002018181516102a6919061278a565b9052506102d5565b8185526020840151156102d557600184815b602002018181516102d191906127da565b9052505b9695505050505050565b60008060006102ee87876105a0565b915091506102fa851590565b15610309576001846002610295565b6020850182905260008460025b602002015111156102d55760018460026102c0565b600080600061033a87876105d5565b91509150610346851590565b15610355576001846003610295565b604085018290526060840151156102d55760018460036102c0565b60008060008061038286866008610616565b9097909650945050505050565b60008060008061038286866004610616565b6000806000806000602086516103b7919061278a565b96860196905060805b608081166080141561047e5786880382116104055762461bcd60e51b6000526020600452600f6024526e6c656e677468206f766572666c6f7760881b60445260536000fd5b875160005b6020811060808416608014161561047757888a0384116104545762461bcd60e51b6000526020600452600f6024526e6c656e677468206f766572666c6f7760881b60445260536000fd5b6001998a019982821a607f8116600788021b97909717969581019593500161040a565b50506103c0565b5091969095509350505050565b6060600080600061049c86866103a1565b9150915060008267ffffffffffffffff8111156104bb576104bb6122ef565b6040519080825280601f01601f1916602001820160405280156104e5576020820181803683370190505b5090506000602087516104f8919061278a565b90508084610506858b61278a565b610510919061278a565b111561051e5761051e6127f1565b868801830160208301610532828288610683565b8361053d878761278a565b975097505050505050509250929050565b6105566121b3565b600083818061056583876103a1565b9092509050610574818461278a565b925060006105838488856106f5565b50905080610591838561278a565b95509550505050509250929050565b6105a86121e1565b60008381806105b783876103a1565b90925090506105c6818461278a565b92506000610583848885610a9f565b604080518082019091526060808252602082015260008381806105f883876103a1565b9092509050610607818461278a565b92506000610583848885610c23565b6000806000806020865161062a919061278a565b905080610637868961278a565b1115610645576106456127f1565b6000878701975087515b868210156106745780821a826008021b8417935060018901985060018201915061064f565b50919794965093945050505050565b60208111156106bc578251825261069b60208361278a565b91506106a860208461278a565b92506106b56020826127da565b9050610683565b600060016106cb8360206127da565b6106d7906101006128eb565b6106e191906127da565b935183518516941916939093179091525050565b6106fd6121b3565b60006107076121b3565b61070f612208565b6000808089805b6107208a8361278a565b81101561089557610731818c610225565b91965094509250610742838261278a565b9050846001141561076a57610759818c8989610fe5565b610763908261278a565b9050610716565b846002141561077f57610759818c898961102b565b846003141561079457610759818c898961103a565b84600414156107b057610759818c6107aa611049565b89611057565b60018460058111156107c4576107c4612403565b14156107e85760006107d6828d610370565b91506107e49050818361278a565b9150505b60058460058111156107fc576107fc612403565b141561082057600061080e828d61038f565b915061081c9050818361278a565b9150505b600084600581111561083457610834612403565b1415610858576000610846828d6103a1565b91506108549050818361278a565b9150505b600284600581111561086c5761086c612403565b141561089057600061087e828d61048b565b915061088c9050818361278a565b9150505b610716565b506080850151819067ffffffffffffffff8111156108b5576108b56122ef565b60405190808252806020026020018201604052801561090b57816020015b6108f86040805160608101909152806000815260200160608152602001606081525090565b8152602001906001900390816108d35790505b5060608801525b61091c8a8361278a565b8110156102135761092d818c610225565b9196509450925061093e838261278a565b9050846001141561096d5761095c818c610956611049565b89610fe5565b610966908261278a565b9050610912565b84600214156109895761095c818c610983611049565b8961102b565b84600314156109a55761095c818c61099f611049565b8961103a565b84600414156109ba5761095c818c8989611057565b60018460058111156109ce576109ce612403565b14156109f25760006109e0828d610370565b91506109ee9050818361278a565b9150505b6005846005811115610a0657610a06612403565b1415610a2a576000610a18828d61038f565b9150610a269050818361278a565b9150505b6000846005811115610a3e57610a3e612403565b1415610a62576000610a50828d6103a1565b9150610a5e9050818361278a565b9150505b6002846005811115610a7657610a76612403565b1415610a9a576000610a88828d61048b565b9150610a969050818361278a565b9150505b610912565b610aa76121e1565b6000610ab16121e1565b610ab9612195565b6000808089805b610aca8a8361278a565b81101561021357610adb818c610225565b91965094509250610aec838261278a565b90508460011415610b1457610b03818c89896110cf565b610b0d908261278a565b9050610ac0565b8460021415610b2957610b03818c89896110de565b8460031415610b3e57610b03818c89896110ed565b6001846005811115610b5257610b52612403565b1415610b76576000610b64828d610370565b9150610b729050818361278a565b9150505b6005846005811115610b8a57610b8a612403565b1415610bae576000610b9c828d61038f565b9150610baa9050818361278a565b9150505b6000846005811115610bc257610bc2612403565b1415610be6576000610bd4828d6103a1565b9150610be29050818361278a565b9150505b6002846005811115610bfa57610bfa612403565b1415610c1e576000610c0c828d61048b565b9150610c1a9050818361278a565b9150505b610ac0565b60408051808201909152606080825260208201526000610c56604051806040016040528060608152602001606081525090565b610c5e612226565b6000808089805b610c6f8a8361278a565b811015610dc157610c80818c610225565b91965094509250610c91838261278a565b90508460011415610cc057610caf818c610ca96110fc565b89611115565b610cb9908261278a565b9050610c65565b8460021415610cdc57610caf818c610cd66110fc565b89611183565b6001846005811115610cf057610cf0612403565b1415610d14576000610d02828d610370565b9150610d109050818361278a565b9150505b6005846005811115610d2857610d28612403565b1415610d4c576000610d3a828d61038f565b9150610d489050818361278a565b9150505b6000846005811115610d6057610d60612403565b1415610d84576000610d72828d6103a1565b9150610d809050818361278a565b9150505b6002846005811115610d9857610d98612403565b1415610dbc576000610daa828d61048b565b9150610db89050818361278a565b9150505b610c65565b506020850151819067ffffffffffffffff811115610de157610de16122ef565b604051908082528060200260200182016040528015610e1a57816020015b610e07612244565b815260200190600190039081610dff5790505b508752604086015167ffffffffffffffff811115610e3a57610e3a6122ef565b604051908082528060200260200182016040528015610e9057816020015b610e7d6040805160608101909152806000815260200160608152602001606081525090565b815260200190600190039081610e585790505b5060208801525b610ea18a8361278a565b81101561021357610eb2818c610225565b91965094509250610ec3838261278a565b90508460011415610eeb57610eda818c8989611115565b610ee4908261278a565b9050610e97565b8460021415610f0057610eda818c8989611183565b6001846005811115610f1457610f14612403565b1415610f38576000610f26828d610370565b9150610f349050818361278a565b9150505b6005846005811115610f4c57610f4c612403565b1415610f70576000610f5e828d61038f565b9150610f6c9050818361278a565b9150505b6000846005811115610f8457610f84612403565b1415610fa8576000610f96828d6103a1565b9150610fa49050818361278a565b9150505b6002846005811115610fbc57610fbc612403565b1415610fe0576000610fce828d61048b565b9150610fdc9050818361278a565b9150505b610e97565b6000806000610ff487876111f4565b91509150611000851590565b1561100e5760018481610295565b81855260008460015b602002015111156102d557600184816102c0565b60008060006102ee87876111f4565b600080600061033a878761120d565b6110516121b3565b50600090565b60008060006110668787611242565b91509150611072851590565b15611081576001846004610295565b606085015160808501518151849291611099916127da565b815181106110a9576110a96127c4565b602090810291909101015260008460045b602002015111156102d55760018460046102c0565b600080600061027f87876111f4565b60008060006102ee878761054e565b600080600061033a878761054e565b6040805180820190915260608082526020820152611051565b60008060006111248787611294565b91509150611130851590565b1561113e5760018481610295565b845160208501518151849291611153916127da565b81518110611163576111636127c4565b602090810291909101810191909152840151156102d557600184816102c0565b60008060006111928787611242565b9150915061119e851590565b156111ad576001846002610295565b6020850151604085015181518492916111c5916127da565b815181106111d5576111d56127c4565b60209081029190910101526040840151156102d55760018460026102c0565b60606000611202848461048b565b915091509250929050565b611215612264565b600083818061122483876103a1565b9092509050611233818461278a565b925060006105838488856112c9565b6112676040805160608101909152806000815260200160608152602001606081525090565b600083818061127683876103a1565b9092509050611285818461278a565b92506000610583848885611477565b61129c612244565b60008381806112ab83876103a1565b90925090506112ba818461278a565b92506000610583848885611629565b6112d1612264565b60006112db612264565b6112e361228c565b6000808089805b6112f48a8361278a565b81101561021357611305818c610225565b91965094509250611316838261278a565b9050846001141561133e5761132d818c8989611798565b611337908261278a565b90506112ea565b84600214156113535761132d818c8989611833565b84600314156113685761132d818c89896118a2565b846004141561137d5761132d818c8989611911565b84600514156113925761132d818c8989611980565b60018460058111156113a6576113a6612403565b14156113ca5760006113b8828d610370565b91506113c69050818361278a565b9150505b60058460058111156113de576113de612403565b14156114025760006113f0828d61038f565b91506113fe9050818361278a565b9150505b600084600581111561141657611416612403565b141561143a576000611428828d6103a1565b91506114369050818361278a565b9150505b600284600581111561144e5761144e612403565b1415611472576000611460828d61048b565b915061146e9050818361278a565b9150505b6112ea565b61149c6040805160608101909152806000815260200160608152602001606081525090565b6040805160608082018352600080835260208301829052928201526114bf612195565b6000808089805b6114d08a8361278a565b811015610213576114e1818c610225565b919650945092506114f2838261278a565b9050846001141561151a57611509818c89896119c5565b611513908261278a565b90506114c6565b846002141561152f57611509818c898961102b565b846003141561154457611509818c8989611a2f565b600184600581111561155857611558612403565b141561157c57600061156a828d610370565b91506115789050818361278a565b9150505b600584600581111561159057611590612403565b14156115b45760006115a2828d61038f565b91506115b09050818361278a565b9150505b60008460058111156115c8576115c8612403565b14156115ec5760006115da828d6103a1565b91506115e89050818361278a565b9150505b600284600581111561160057611600612403565b1415611624576000611612828d61048b565b91506116209050818361278a565b9150505b6114c6565b611631612244565b600061163b612244565b611643612226565b6000808089805b6116548a8361278a565b81101561021357611665818c610225565b91965094509250611676838261278a565b9050846001141561169e5761168d818c8989611a3e565b611697908261278a565b905061164a565b84600214156116b35761168d818c8989611a74565b60018460058111156116c7576116c7612403565b14156116eb5760006116d9828d610370565b91506116e79050818361278a565b9150505b60058460058111156116ff576116ff612403565b1415611723576000611711828d61038f565b915061171f9050818361278a565b9150505b600084600581111561173757611737612403565b141561175b576000611749828d6103a1565b91506117579050818361278a565b9150505b600284600581111561176f5761176f612403565b1415611793576000611781828d61048b565b915061178f9050818361278a565b9150505b61164a565b60008060006117a78787611aaf565b9150915060006117b683611abc565b9050856117db57600185815b602002018181516117d3919061278a565b905250611828565b858160068111156117ee576117ee612403565b9081600681111561180157611801612403565b90525060208501511561182857600185815b6020020181815161182491906127da565b9052505b509695505050505050565b60008060006118428787611aaf565b91509150600061185183611abc565b9050856118625760018560026117c2565b6020860181600681111561187857611878612403565b9081600681111561188b5761188b612403565b905250604085015115611828576001856002611813565b60008060006118b18787611aaf565b9150915060006118c083611abc565b9050856118d15760018560036117c2565b604086018160068111156118e7576118e7612403565b908160068111156118fa576118fa612403565b905250606085015115611828576001856003611813565b60008060006119208787611aaf565b91509150600061192f83611abc565b9050856119405760018560046117c2565b6060860181600681111561195657611956612403565b9081600681111561196957611969612403565b905250608085015115611828576001856004611813565b600080600061198f87876111f4565b9150915061199b851590565b156119aa576001846005610295565b6080850182905260a0840151156102d55760018460056102c0565b60008060006119d48787611aaf565b9150915060006119e383611abc565b9050856119f357600185816117c2565b85816006811115611a0657611a06612403565b90816006811115611a1957611a19612403565b9052506020850151156118285760018581611813565b600080600061033a87876111f4565b6000806000611a4d8787611b4a565b91509150611a59851590565b15611a675760018481610295565b8185526000846001611017565b6000806000611a838787611b7f565b91509150611a8f851590565b15611a9e576001846002610295565b602085018290526000846002610316565b6000806112028484611bb4565b60008160070b60001415611ad257506000919050565b8160070b60011415611ae657506001919050565b8160070b60021415611afa57506002919050565b8160070b60031415611b0e57506003919050565b8160070b60041415611b2257506004919050565b8160070b60051415611b3657506005919050565b8160070b6006141561002b57506006919050565b611b526122aa565b6000838180611b6183876103a1565b9092509050611b70818461278a565b92506000610583848885611bc4565b611b876122c8565b6000838180611b9683876103a1565b9092509050611ba5818461278a565b92506000610583848885611f35565b60008060008061038286866103a1565b611bcc6122aa565b6000611bd66122aa565b611bde612208565b6000808089805b611bef8a8361278a565b811015611d6457611c00818c610225565b91965094509250611c11838261278a565b90508460011415611c3957611c28818c8989610fe5565b611c32908261278a565b9050611be5565b8460021415611c4e57611c28818c898961102b565b8460031415611c6357611c28818c89896118a2565b8460041415611c7f57611c28818c611c796120b9565b896120c1565b6001846005811115611c9357611c93612403565b1415611cb7576000611ca5828d610370565b9150611cb39050818361278a565b9150505b6005846005811115611ccb57611ccb612403565b1415611cef576000611cdd828d61038f565b9150611ceb9050818361278a565b9150505b6000846005811115611d0357611d03612403565b1415611d27576000611d15828d6103a1565b9150611d239050818361278a565b9150505b6002846005811115611d3b57611d3b612403565b1415611d5f576000611d4d828d61048b565b9150611d5b9050818361278a565b9150505b611be5565b506080850151819067ffffffffffffffff811115611d8457611d846122ef565b604051908082528060200260200182016040528015611dad578160200160208202803683370190505b5060608801525b611dbe8a8361278a565b81101561021357611dcf818c610225565b91965094509250611de0838261278a565b90508460011415611e0957611df8818c6109566120b9565b611e02908261278a565b9050611db4565b8460021415611e1f57611df8818c6109836120b9565b8460031415611e3b57611df8818c611e356120b9565b896118a2565b8460041415611e5057611df8818c89896120c1565b6001846005811115611e6457611e64612403565b1415611e88576000611e76828d610370565b9150611e849050818361278a565b9150505b6005846005811115611e9c57611e9c612403565b1415611ec0576000611eae828d61038f565b9150611ebc9050818361278a565b9150505b6000846005811115611ed457611ed4612403565b1415611ef8576000611ee6828d6103a1565b9150611ef49050818361278a565b9150505b6002846005811115611f0c57611f0c612403565b1415611f30576000611f1e828d61048b565b9150611f2c9050818361278a565b9150505b611db4565b611f3d6122c8565b6000611f476122c8565b611f4f612195565b6000808089805b611f608a8361278a565b81101561021357611f71818c610225565b91965094509250611f82838261278a565b90508460011415611faa57611f99818c89896110cf565b611fa3908261278a565b9050611f56565b8460021415611fbf57611f99818c8989612130565b8460031415611fd457611f99818c898961213f565b6001846005811115611fe857611fe8612403565b141561200c576000611ffa828d610370565b91506120089050818361278a565b9150505b600584600581111561202057612020612403565b1415612044576000612032828d61038f565b91506120409050818361278a565b9150505b600084600581111561205857612058612403565b141561207c57600061206a828d6103a1565b91506120789050818361278a565b9150505b600284600581111561209057612090612403565b14156120b45760006120a2828d61048b565b91506120b09050818361278a565b9150505b611f56565b6110516122aa565b60008060006120d08787611bb4565b915091506120dc851590565b156120eb576001846004610295565b606085015160808501518151849291612103916127da565b81518110612113576121136127c4565b60039290920b6020928302919091019091015260008460046110ba565b60008060006102ee8787611b4a565b600080600061033a8787611b4a565b60405180606001604052806121616121b3565b815260200161216e6121e1565b8152602001612190604051806040016040528060608152602001606081525090565b905290565b60405180608001604052806004906020820280368337509192915050565b604051806080016040528060608152602001606081526020016121d4612264565b8152602001606081525090565b6040518060600160405280606081526020016121fb6121b3565b81526020016121906121b3565b6040518060a001604052806005906020820280368337509192915050565b60405180606001604052806003906020820280368337509192915050565b60405180604001604052806122576122aa565b81526020016121906122c8565b6040805160a081019091528060008152602001600081526020016000815260200160006121d4565b6040518060c001604052806006906020820280368337509192915050565b604080516080810182526060808252602082015290810160006121d4565b6040518060600160405280606081526020016122e26122aa565b81526020016121906122aa565b634e487b7160e01b600052604160045260246000fd5b60006020828403121561231757600080fd5b813567ffffffffffffffff8082111561232f57600080fd5b818401915084601f83011261234357600080fd5b813581811115612355576123556122ef565b604051601f8201601f19908116603f0116810190838211818310171561237d5761237d6122ef565b8160405282815287602084870101111561239657600080fd5b826020860160208301376000928101602001929092525095945050505050565b6000815180845260005b818110156123dc576020818501810151868301820152016123c0565b818111156123ee576000602083870101525b50601f01601f19169290920160200192915050565b634e487b7160e01b600052602160045260246000fd5b6007811061243757634e487b7160e01b600052602160045260246000fd5b50565b600082825180855260208086019550808260051b84010181860160005b848110156124c057601f1986840301895281516060815161247781612419565b85528186015186860182905261248f828701826123b6565b915050604080830151925085820381870152506124ac81836123b6565b9a86019a9450505090830190600101612457565b5090979650505050505050565b60008151608084526124e260808501826123b6565b9050602083015184820360208601526124fb82826123b6565b91505060408301518482036040860152805161251681612419565b8252602081015161252681612419565b6020830152604081015161253981612419565b6040830152606081015161254c81612419565b806060840152506080810151905060a0608083015261256e60a08301826123b6565b91505060608301518482036060860152612588828261243a565b95945050505050565b60008151608084526125a660808501826123b6565b9050602080840151858303828701526125bf83826123b6565b92505060408401516125d081612419565b604086015260608481015186840391870191909152805180845290820192600091908301905b8083101561182857845160030b82529383019360019290920191908301906125f6565b6000602080835283516060808386015261263660808601836124cd565b915082860151601f196040818886030181890152825184865261265b858701826123b6565b9050868401518682038888015261267282826124cd565b9150508184015193508581038287015261268c81856124cd565b8a8301518a8203909401868b015283518382528051848301819052919750939450600581901b8701860193880191508587019060005b8181101561274c57888603605f19018352835180518688526126e687890182612591565b90508b82015191508781038c89015281518a82526127068b8301826123b6565b90508c8301518282038e84015261271d8282612591565b915050878301519250818103888301526127378184612591565b98505050938a019350918901916001016126c2565b505050505084820151925083810385850152612768818461243a565b98975050505050505050565b634e487b7160e01b600052601160045260246000fd5b6000821982111561279d5761279d612774565b500190565b6000826127bf57634e487b7160e01b600052601260045260246000fd5b500490565b634e487b7160e01b600052603260045260246000fd5b6000828210156127ec576127ec612774565b500390565b634e487b7160e01b600052600160045260246000fd5b600181815b8085111561284257816000190482111561282857612828612774565b8085161561283557918102915b93841c939080029061280c565b509250929050565b6000826128595750600161006a565b816128665750600061006a565b816001811461287c5760028114612886576128a2565b600191505061006a565b60ff84111561289757612897612774565b50506001821b61006a565b5060208310610133831016604e8410600b84101617156128c5575081810a61006a565b6128cf8383612807565b80600019048211156128e3576128e3612774565b029392505050565b60006128f7838361284a565b939250505056fea2646970667358221220b11af1700b03dd3c13a4c79f83b93370780e3f7f79f9fb53261fd4611ecd625664736f6c634300080a0033",
  "bytecodeSha1": "b73d69449c05ff4080079c12326bd68aeb37d29f",
  "compiler": {
    "evm_version": "istanbul",
    "optimizer": {
      "enabled": true,
      "runs": 200
    },
    "version": "0.8.10+commit.fc410830"
  },
  "contractName": "SolTest",
  "language": "Solidity",
  "natspec": {
    "kind": "dev",
    "methods": {},
    "version": 1
  },
  "opcodes": "PUSH1 0x80 PUSH1 0x40 MSTORE CALLVALUE DUP1 ISZERO PUSH2 0x10 JUMPI PUSH1 0x0 DUP1 REVERT JUMPDEST POP PUSH1 0x4 CALLDATASIZE LT PUSH2 0x2B JUMPI PUSH1 0x0 CALLDATALOAD PUSH1 0xE0 SHR DUP1 PUSH4 0x3D78425A EQ PUSH2 0x30 JUMPI JUMPDEST PUSH1 0x0 DUP1 REVERT JUMPDEST PUSH2 0x43 PUSH2 0x3E CALLDATASIZE PUSH1 0x4 PUSH2 0x2305 JUMP JUMPDEST PUSH2 0x59 JUMP JUMPDEST PUSH1 0x40 MLOAD PUSH2 0x50 SWAP2 SWAP1 PUSH2 0x2619 JUMP JUMPDEST PUSH1 0x40 MLOAD DUP1 SWAP2 SUB SWAP1 RETURN JUMPDEST PUSH2 0x61 PUSH2 0x214E JUMP JUMPDEST PUSH2 0x6A DUP3 PUSH2 0x70 JUMP JUMPDEST SWAP3 SWAP2 POP POP JUMP JUMPDEST PUSH2 0x78 PUSH2 0x214E JUMP JUMPDEST PUSH1 0x0 PUSH2 0x87 PUSH1 0x20 DUP5 DUP6 MLOAD PUSH2 0x8F JUMP JUMPDEST POP SWAP4 SWAP3 POP POP POP JUMP JUMPDEST PUSH2 0x97 PUSH2 0x214E JUMP JUMPDEST PUSH1 0x0 PUSH2 0xA1 PUSH2 0x214E JUMP JUMPDEST PUSH2 0xA9 PUSH2 0x2195 JUMP JUMPDEST PUSH1 0x0 DUP1 DUP1 DUP10 DUP1 JUMPDEST PUSH2 0xBA DUP11 DUP4 PUSH2 0x278A JUMP JUMPDEST DUP2 LT ISZERO PUSH2 0x213 JUMPI PUSH2 0xCB DUP2 DUP13 PUSH2 0x225 JUMP JUMPDEST SWAP2 SWAP7 POP SWAP5 POP SWAP3 POP PUSH2 0xDC DUP4 DUP3 PUSH2 0x278A JUMP JUMPDEST SWAP1 POP DUP5 PUSH1 0x1 EQ ISZERO PUSH2 0x104 JUMPI PUSH2 0xF3 DUP2 DUP13 DUP10 DUP10 PUSH2 0x270 JUMP JUMPDEST PUSH2 0xFD SWAP1 DUP3 PUSH2 0x278A JUMP JUMPDEST SWAP1 POP PUSH2 0xB0 JUMP JUMPDEST DUP5 PUSH1 0x2 EQ ISZERO PUSH2 0x119 JUMPI PUSH2 0xF3 DUP2 DUP13 DUP10 DUP10 PUSH2 0x2DF JUMP JUMPDEST DUP5 PUSH1 0x3 EQ ISZERO PUSH2 0x12E JUMPI PUSH2 0xF3 DUP2 DUP13 DUP10 DUP10 PUSH2 0x32B JUMP JUMPDEST PUSH1 0x1 DUP5 PUSH1 0x5 DUP2 GT ISZERO PUSH2 0x142 JUMPI PUSH2 0x142 PUSH2 0x2403 JUMP JUMPDEST EQ ISZERO PUSH2 0x166 JUMPI PUSH1 0x0 PUSH2 0x154 DUP3 DUP14 PUSH2 0x370 JUMP JUMPDEST SWAP2 POP PUSH2 0x162 SWAP1 POP DUP2 DUP4 PUSH2 0x278A JUMP JUMPDEST SWAP2 POP POP JUMPDEST PUSH1 0x5 DUP5 PUSH1 0x5 DUP2 GT ISZERO PUSH2 0x17A JUMPI PUSH2 0x17A PUSH2 0x2403 JUMP JUMPDEST EQ ISZERO PUSH2 0x19E JUMPI PUSH1 0x0 PUSH2 0x18C DUP3 DUP14 PUSH2 0x38F JUMP JUMPDEST SWAP2 POP PUSH2 0x19A SWAP1 POP DUP2 DUP4 PUSH2 0x278A JUMP JUMPDEST SWAP2 POP POP JUMPDEST PUSH1 0x0 DUP5 PUSH1 0x5 DUP2 GT ISZERO PUSH2 0x1B2 JUMPI PUSH2 0x1B2 PUSH2 0x2403 JUMP JUMPDEST EQ ISZERO PUSH2 0x1D6 JUMPI PUSH1 0x0 PUSH2 0x1C4 DUP3 DUP14 PUSH2 0x3A1 JUMP JUMPDEST SWAP2 POP PUSH2 0x1D2 SWAP1 POP DUP2 DUP4 PUSH2 0x278A JUMP JUMPDEST SWAP2 POP POP JUMPDEST PUSH1 0x2 DUP5 PUSH1 0x5 DUP2 GT ISZERO PUSH2 0x1EA JUMPI PUSH2 0x1EA PUSH2 0x2403 JUMP JUMPDEST EQ ISZERO PUSH2 0x20E JUMPI PUSH1 0x0 PUSH2 0x1FC DUP3 DUP14 PUSH2 0x48B JUMP JUMPDEST SWAP2 POP PUSH2 0x20A SWAP1 POP DUP2 DUP4 PUSH2 0x278A JUMP JUMPDEST SWAP2 POP POP JUMPDEST PUSH2 0xB0 JUMP JUMPDEST POP SWAP5 SWAP11 SWAP8 SWAP10 POP SWAP7 SWAP8 POP POP POP POP POP POP POP POP JUMP JUMPDEST PUSH1 0x0 DUP1 PUSH1 0x0 DUP1 PUSH1 0x0 PUSH2 0x237 DUP8 DUP8 PUSH2 0x3A1 JUMP JUMPDEST SWAP2 POP SWAP2 POP PUSH1 0x0 DUP3 PUSH1 0x7 AND PUSH1 0x5 DUP2 GT ISZERO PUSH2 0x252 JUMPI PUSH2 0x252 PUSH2 0x2403 JUMP JUMPDEST SWAP1 POP PUSH1 0x0 PUSH2 0x261 PUSH1 0x8 DUP6 PUSH2 0x27A2 JUMP JUMPDEST SWAP10 SWAP2 SWAP9 POP SWAP2 SWAP7 POP SWAP5 POP POP POP POP POP JUMP JUMPDEST PUSH1 0x0 DUP1 PUSH1 0x0 PUSH2 0x27F DUP8 DUP8 PUSH2 0x54E JUMP JUMPDEST SWAP2 POP SWAP2 POP PUSH2 0x28B DUP6 ISZERO SWAP1 JUMP JUMPDEST ISZERO PUSH2 0x2AE JUMPI PUSH1 0x1 DUP5 DUP2 JUMPDEST PUSH1 0x20 MUL ADD DUP2 DUP2 MLOAD PUSH2 0x2A6 SWAP2 SWAP1 PUSH2 0x278A JUMP JUMPDEST SWAP1 MSTORE POP PUSH2 0x2D5 JUMP JUMPDEST DUP2 DUP6 MSTORE PUSH1 0x20 DUP5 ADD MLOAD ISZERO PUSH2 0x2D5 JUMPI PUSH1 0x1 DUP5 DUP2 JUMPDEST PUSH1 0x20 MUL ADD DUP2 DUP2 MLOAD PUSH2 0x2D1 SWAP2 SWAP1 PUSH2 0x27DA JUMP JUMPDEST SWAP1 MSTORE POP JUMPDEST SWAP7 SWAP6 POP POP POP POP POP POP JUMP JUMPDEST PUSH1 0x0 DUP1 PUSH1 0x0 PUSH2 0x2EE DUP8 DUP8 PUSH2 0x5A0 JUMP JUMPDEST SWAP2 POP SWAP2 POP PUSH2 0x2FA DUP6 ISZERO SWAP1 JUMP JUMPDEST ISZERO PUSH2 0x309 JUMPI PUSH1 0x1 DUP5 PUSH1 0x2 PUSH2 0x295 JUMP JUMPDEST PUSH1 0x20 DUP6 ADD DUP3 SWAP1 MSTORE PUSH1 0x0 DUP5 PUSH1 0x2 JUMPDEST PUSH1 0x20 MUL ADD MLOAD GT ISZERO PUSH2 0x2D5 JUMPI PUSH1 0x1 DUP5 PUSH1 0x2 PUSH2 0x2C0 JUMP JUMPDEST PUSH1 0x0 DUP1 PUSH1 0x0 PUSH2 0x33A DUP8 DUP8 PUSH2 0x5D5 JUMP JUMPDEST SWAP2 POP SWAP2 POP PUSH2 0x346 DUP6 ISZERO SWAP1 JUMP JUMPDEST ISZERO PUSH2 0x355 JUMPI PUSH1 0x1 DUP5 PUSH1 0x3 PUSH2 0x295 JUMP JUMPDEST PUSH1 0x40 DUP6 ADD DUP3 SWAP1 MSTORE PUSH1 0x60 DUP5 ADD MLOAD ISZERO PUSH2 0x2D5 JUMPI PUSH1 0x1 DUP5 PUSH1 0x3 PUSH2 0x2C0 JUMP JUMPDEST PUSH1 0x0 DUP1 PUSH1 0x0 DUP1 PUSH2 0x382 DUP7 DUP7 PUSH1 0x8 PUSH2 0x616 JUMP JUMPDEST SWAP1 SWAP8 SWAP1 SWAP7 POP SWAP5 POP POP POP POP POP JUMP JUMPDEST PUSH1 0x0 DUP1 PUSH1 0x0 DUP1 PUSH2 0x382 DUP7 DUP7 PUSH1 0x4 PUSH2 0x616 JUMP JUMPDEST PUSH1 0x0 DUP1 PUSH1 0x0 DUP1 PUSH1 0x0 PUSH1 0x20 DUP7 MLOAD PUSH2 0x3B7 SWAP2 SWAP1 PUSH2 0x278A JUMP JUMPDEST SWAP7 DUP7 ADD SWAP7 SWAP1 POP PUSH1 0x80 JUMPDEST PUSH1 0x80 DUP2 AND PUSH1 0x80 EQ ISZERO PUSH2 0x47E JUMPI DUP7 DUP9 SUB DUP3 GT PUSH2 0x405 JUMPI PUSH3 0x461BCD PUSH1 0xE5 SHL PUSH1 0x0 MSTORE PUSH1 0x20 PUSH1 0x4 MSTORE PUSH1 0xF PUSH1 0x24 MSTORE PUSH15 0x6C656E677468206F766572666C6F77 PUSH1 0x88 SHL PUSH1 0x44 MSTORE PUSH1 0x53 PUSH1 0x0 REVERT JUMPDEST DUP8 MLOAD PUSH1 0x0 JUMPDEST PUSH1 0x20 DUP2 LT PUSH1 0x80 DUP5 AND PUSH1 0x80 EQ AND ISZERO PUSH2 0x477 JUMPI DUP9 DUP11 SUB DUP5 GT PUSH2 0x454 JUMPI PUSH3 0x461BCD PUSH1 0xE5 SHL PUSH1 0x0 MSTORE PUSH1 0x20 PUSH1 0x4 MSTORE PUSH1 0xF PUSH1 0x24 MSTORE PUSH15 0x6C656E677468206F766572666C6F77 PUSH1 0x88 SHL PUSH1 0x44 MSTORE PUSH1 0x53 PUSH1 0x0 REVERT JUMPDEST PUSH1 0x1 SWAP10 DUP11 ADD SWAP10 DUP3 DUP3 BYTE PUSH1 0x7F DUP2 AND PUSH1 0x7 DUP9 MUL SHL SWAP8 SWAP1 SWAP8 OR SWAP7 SWAP6 DUP2 ADD SWAP6 SWAP4 POP ADD PUSH2 0x40A JUMP JUMPDEST POP POP PUSH2 0x3C0 JUMP JUMPDEST POP SWAP2 SWAP7 SWAP1 SWAP6 POP SWAP4 POP POP POP POP JUMP JUMPDEST PUSH1 0x60 PUSH1 0x0 DUP1 PUSH1 0x0 PUSH2 0x49C DUP7 DUP7 PUSH2 0x3A1 JUMP JUMPDEST SWAP2 POP SWAP2 POP PUSH1 0x0 DUP3 PUSH8 0xFFFFFFFFFFFFFFFF DUP2 GT ISZERO PUSH2 0x4BB JUMPI PUSH2 0x4BB PUSH2 0x22EF JUMP JUMPDEST PUSH1 0x40 MLOAD SWAP1 DUP1 DUP3 MSTORE DUP1 PUSH1 0x1F ADD PUSH1 0x1F NOT AND PUSH1 0x20 ADD DUP3 ADD PUSH1 0x40 MSTORE DUP1 ISZERO PUSH2 0x4E5 JUMPI PUSH1 0x20 DUP3 ADD DUP2 DUP1 CALLDATASIZE DUP4 CALLDATACOPY ADD SWAP1 POP JUMPDEST POP SWAP1 POP PUSH1 0x0 PUSH1 0x20 DUP8 MLOAD PUSH2 0x4F8 SWAP2 SWAP1 PUSH2 0x278A JUMP JUMPDEST SWAP1 POP DUP1 DUP5 PUSH2 0x506 DUP6 DUP12 PUSH2 0x278A JUMP JUMPDEST PUSH2 0x510 SWAP2 SWAP1 PUSH2 0x278A JUMP JUMPDEST GT ISZERO PUSH2 0x51E JUMPI PUSH2 0x51E PUSH2 0x27F1 JUMP JUMPDEST DUP7 DUP9 ADD DUP4 ADD PUSH1 0x20 DUP4 ADD PUSH2 0x532 DUP3 DUP3 DUP9 PUSH2 0x683 JUMP JUMPDEST DUP4 PUSH2 0x53D DUP8 DUP8 PUSH2 0x278A JUMP JUMPDEST SWAP8 POP SWAP8 POP POP POP POP POP POP POP SWAP3 POP SWAP3 SWAP1 POP JUMP JUMPDEST PUSH2 0x556 PUSH2 0x21B3 JUMP JUMPDEST PUSH1 0x0 DUP4 DUP2 DUP1 PUSH2 0x565 DUP4 DUP8 PUSH2 0x3A1 JUMP JUMPDEST SWAP1 SWAP3 POP SWAP1 POP PUSH2 0x574 DUP2 DUP5 PUSH2 0x278A JUMP JUMPDEST SWAP3 POP PUSH1 0x0 PUSH2 0x583 DUP5 DUP9 DUP6 PUSH2 0x6F5 JUMP JUMPDEST POP SWAP1 POP DUP1 PUSH2 0x591 DUP4 DUP6 PUSH2 0x278A JUMP JUMPDEST SWAP6 POP SWAP6 POP POP POP POP POP SWAP3 POP SWAP3 SWAP1 POP JUMP JUMPDEST PUSH2 0x5A8 PUSH2 0x21E1 JUMP JUMPDEST PUSH1 0x0 DUP4 DUP2 DUP1 PUSH2 0x5B7 DUP4 DUP8 PUSH2 0x3A1 JUMP JUMPDEST SWAP1 SWAP3 POP SWAP1 POP PUSH2 0x5C6 DUP2 DUP5 PUSH2 0x278A JUMP JUMPDEST SWAP3 POP PUSH1 0x0 PUSH2 0x583 DUP5 DUP9 DUP6 PUSH2 0xA9F JUMP JUMPDEST PUSH1 0x40 DUP1 MLOAD DUP1 DUP3 ADD SWAP1 SWAP2 MSTORE PUSH1 0x60 DUP1 DUP3 MSTORE PUSH1 0x20 DUP3 ADD MSTORE PUSH1 0x0 DUP4 DUP2 DUP1 PUSH2 0x5F8 DUP4 DUP8 PUSH2 0x3A1 JUMP JUMPDEST SWAP1 SWAP3 POP SWAP1 POP PUSH2 0x607 DUP2 DUP5 PUSH2 0x278A JUMP JUMPDEST SWAP3 POP PUSH1 0x0 PUSH2 0x583 DUP5 DUP9 DUP6 PUSH2 0xC23 JUMP JUMPDEST PUSH1 0x0 DUP1 PUSH1 0x0 DUP1 PUSH1 0x20 DUP7 MLOAD PUSH2 0x62A SWAP2 SWAP1 PUSH2 0x278A JUMP JUMPDEST SWAP1 POP DUP1 PUSH2 0x637 DUP7 DUP10 PUSH2 0x278A JUMP JUMPDEST GT ISZERO PUSH2 0x645 JUMPI PUSH2 0x645 PUSH2 0x27F1 JUMP JUMPDEST PUSH1 0x0 DUP8 DUP8 ADD SWAP8 POP DUP8 MLOAD JUMPDEST DUP7 DUP3 LT ISZERO PUSH2 0x674 JUMPI DUP1 DUP3 BYTE DUP3 PUSH1 0x8 MUL SHL DUP5 OR SWAP4 POP PUSH1 0x1 DUP10 ADD SWAP9 POP PUSH1 0x1 DUP3 ADD SWAP2 POP PUSH2 0x64F JUMP JUMPDEST POP SWAP2 SWAP8 SWAP5 SWAP7 POP SWAP4 SWAP5 POP POP POP POP POP JUMP JUMPDEST PUSH1 0x20 DUP2 GT ISZERO PUSH2 0x6BC JUMPI DUP3 MLOAD DUP3 MSTORE PUSH2 0x69B PUSH1 0x20 DUP4 PUSH2 0x278A JUMP JUMPDEST SWAP2 POP PUSH2 0x6A8 PUSH1 0x20 DUP5 PUSH2 0x278A JUMP JUMPDEST SWAP3 POP PUSH2 0x6B5 PUSH1 0x20 DUP3 PUSH2 0x27DA JUMP JUMPDEST SWAP1 POP PUSH2 0x683 JUMP JUMPDEST PUSH1 0x0 PUSH1 0x1 PUSH2 0x6CB DUP4 PUSH1 0x20 PUSH2 0x27DA JUMP JUMPDEST PUSH2 0x6D7 SWAP1 PUSH2 0x100 PUSH2 0x28EB JUMP JUMPDEST PUSH2 0x6E1 SWAP2 SWAP1 PUSH2 0x27DA JUMP JUMPDEST SWAP4 MLOAD DUP4 MLOAD DUP6 AND SWAP5 NOT AND SWAP4 SWAP1 SWAP4 OR SWAP1 SWAP2 MSTORE POP POP JUMP JUMPDEST PUSH2 0x6FD PUSH2 0x21B3 JUMP JUMPDEST PUSH1 0x0 PUSH2 0x707 PUSH2 0x21B3 JUMP JUMPDEST PUSH2 0x70F PUSH2 0x2208 JUMP JUMPDEST PUSH1 0x0 DUP1 DUP1 DUP10 DUP1 JUMPDEST PUSH2 0x720 DUP11 DUP4 PUSH2 0x278A JUMP JUMPDEST DUP2 LT ISZERO PUSH2 0x895 JUMPI PUSH2 0x731 DUP2 DUP13 PUSH2 0x225 JUMP JUMPDEST SWAP2 SWAP7 POP SWAP5 POP SWAP3 POP PUSH2 0x742 DUP4 DUP3 PUSH2 0x278A JUMP JUMPDEST SWAP1 POP DUP5 PUSH1 0x1 EQ ISZERO PUSH2 0x76A JUMPI PUSH2 0x759 DUP2 DUP13 DUP10 DUP10 PUSH2 0xFE5 JUMP JUMPDEST PUSH2 0x763 SWAP1 DUP3 PUSH2 0x278A JUMP JUMPDEST SWAP1 POP PUSH2 0x716 JUMP JUMPDEST DUP5 PUSH1 0x2 EQ ISZERO PUSH2 0x77F JUMPI PUSH2 0x759 DUP2 DUP13 DUP10 DUP10 PUSH2 0x102B JUMP JUMPDEST DUP5 PUSH1 0x3 EQ ISZERO PUSH2 0x794 JUMPI PUSH2 0x759 DUP2 DUP13 DUP10 DUP10 PUSH2 0x103A JUMP JUMPDEST DUP5 PUSH1 0x4 EQ ISZERO PUSH2 0x7B0 JUMPI PUSH2 0x759 DUP2 DUP13 PUSH2 0x7AA PUSH2 0x1049 JUMP JUMPDEST DUP10 PUSH2 0x1057 JUMP JUMPDEST PUSH1 0x1 DUP5 PUSH1 0x5 DUP2 GT ISZERO PUSH2 0x7C4 JUMPI PUSH2 0x7C4 PUSH2 0x2403 JUMP JUMPDEST EQ ISZERO PUSH2 0x7E8 JUMPI PUSH1 0x0 PUSH2 0x7D6 DUP3 DUP14 PUSH2 0x370 JUMP JUMPDEST SWAP2 POP PUSH2 0x7E4 SWAP1 POP DUP2 DUP4 PUSH2 0x278A JUMP JUMPDEST SWAP2 POP POP JUMPDEST PUSH1 0x5 DUP5 PUSH1 0x5 DUP2 GT ISZERO PUSH2 0x7FC JUMPI PUSH2 0x7FC PUSH2 0x2403 JUMP JUMPDEST EQ ISZERO PUSH2 0x820 JUMPI PUSH1 0x0 PUSH2 0x80E DUP3 DUP14 PUSH2 0x38F JUMP JUMPDEST SWAP2 POP PUSH2 0x81C SWAP1 POP DUP2 DUP4 PUSH2 0x278A JUMP JUMPDEST SWAP2 POP POP JUMPDEST PUSH1 0x0 DUP5 PUSH1 0x5 DUP2 GT ISZERO PUSH2 0x834 JUMPI PUSH2 0x834 PUSH2 0x2403 JUMP JUMPDEST EQ ISZERO PUSH2 0x858 JUMPI PUSH1 0x0 PUSH2 0x846 DUP3 DUP14 PUSH2 0x3A1 JUMP JUMPDEST SWAP2 POP PUSH2 0x854 SWAP1 POP DUP2 DUP4 PUSH2 0x278A JUMP JUMPDEST SWAP2 POP POP JUMPDEST PUSH1 0x2 DUP5 PUSH1 0x5 DUP2 GT ISZERO PUSH2 0x86C JUMPI PUSH2 0x86C PUSH2 0x2403 JUMP JUMPDEST EQ ISZERO PUSH2 0x890 JUMPI PUSH1 0x0 PUSH2 0x87E DUP3 DUP14 PUSH2 0x48B JUMP JUMPDEST SWAP2 POP PUSH2 0x88C SWAP1 POP DUP2 DUP4 PUSH2 0x278A JUMP JUMPDEST SWAP2 POP POP JUMPDEST PUSH2 0x716 JUMP JUMPDEST POP PUSH1 0x80 DUP6 ADD MLOAD DUP2 SWAP1 PUSH8 0xFFFFFFFFFFFFFFFF DUP2 GT ISZERO PUSH2 0x8B5 JUMPI PUSH2 0x8B5 PUSH2 0x22EF JUMP JUMPDEST PUSH1 0x40 MLOAD SWAP1 DUP1 DUP3 MSTORE DUP1 PUSH1 0x20 MUL PUSH1 0x20 ADD DUP3 ADD PUSH1 0x40 MSTORE DUP1 ISZERO PUSH2 0x90B JUMPI DUP2 PUSH1 0x20 ADD JUMPDEST PUSH2 0x8F8 PUSH1 0x40 DUP1 MLOAD PUSH1 0x60 DUP2 ADD SWAP1 SWAP2 MSTORE DUP1 PUSH1 0x0 DUP2 MSTORE PUSH1 0x20 ADD PUSH1 0x60 DUP2 MSTORE PUSH1 0x20 ADD PUSH1 0x60 DUP2 MSTORE POP SWAP1 JUMP JUMPDEST DUP2 MSTORE PUSH1 0x20 ADD SWAP1 PUSH1 0x1 SWAP1 SUB SWAP1 DUP2 PUSH2 0x8D3 JUMPI SWAP1 POP JUMPDEST POP PUSH1 0x60 DUP9 ADD MSTORE JUMPDEST PUSH2 0x91C DUP11 DUP4 PUSH2 0x278A JUMP JUMPDEST DUP2 LT ISZERO PUSH2 0x213 JUMPI PUSH2 0x92D DUP2 DUP13 PUSH2 0x225 JUMP JUMPDEST SWAP2 SWAP7 POP SWAP5 POP SWAP3 POP PUSH2 0x93E DUP4 DUP3 PUSH2 0x278A JUMP JUMPDEST SWAP1 POP DUP5 PUSH1 0x1 EQ ISZERO PUSH2 0x96D JUMPI PUSH2 0x95C DUP2 DUP13 PUSH2 0x956 PUSH2 0x1049 JUMP JUMPDEST DUP10 PUSH2 0xFE5 JUMP JUMPDEST PUSH2 0x966 SWAP1 DUP3 PUSH2 0x278A JUMP JUMPDEST SWAP1 POP PUSH2 0x912 JUMP JUMPDEST DUP5 PUSH1 0x2 EQ ISZERO PUSH2 0x989 JUMPI PUSH2 0x95C DUP2 DUP13 PUSH2 0x983 PUSH2 0x1049 JUMP JUMPDEST DUP10 PUSH2 0x102B JUMP JUMPDEST DUP5 PUSH1 0x3 EQ ISZERO PUSH2 0x9A5 JUMPI PUSH2 0x95C DUP2 DUP13 PUSH2 0x99F PUSH2 0x1049 JUMP JUMPDEST DUP10 PUSH2 0x103A JUMP JUMPDEST DUP5 PUSH1 0x4 EQ ISZERO PUSH2 0x9BA JUMPI PUSH2 0x95C DUP2 DUP13 DUP10 DUP10 PUSH2 0x1057 JUMP JUMPDEST PUSH1 0x1 DUP5 PUSH1 0x5 DUP2 GT ISZERO PUSH2 0x9CE JUMPI PUSH2 0x9CE PUSH2 0x2403 JUMP JUMPDEST EQ ISZERO PUSH2 0x9F2 JUMPI PUSH1 0x0 PUSH2 0x9E0 DUP3 DUP14 PUSH2 0x370 JUMP JUMPDEST SWAP2 POP PUSH2 0x9EE SWAP1 POP DUP2 DUP4 PUSH2 0x278A JUMP JUMPDEST SWAP2 POP POP JUMPDEST PUSH1 0x5 DUP5 PUSH1 0x5 DUP2 GT ISZERO PUSH2 0xA06 JUMPI PUSH2 0xA06 PUSH2 0x2403 JUMP JUMPDEST EQ ISZERO PUSH2 0xA2A JUMPI PUSH1 0x0 PUSH2 0xA18 DUP3 DUP14 PUSH2 0x38F JUMP JUMPDEST SWAP2 POP PUSH2 0xA26 SWAP1 POP DUP2 DUP4 PUSH2 0x278A JUMP JUMPDEST SWAP2 POP POP JUMPDEST PUSH1 0x0 DUP5 PUSH1 0x5 DUP2 GT ISZERO PUSH2 0xA3E JUMPI PUSH2 0xA3E PUSH2 0x2403 JUMP JUMPDEST EQ ISZERO PUSH2 0xA62 JUMPI PUSH1 0x0 PUSH2 0xA50 DUP3 DUP14 PUSH2 0x3A1 JUMP JUMPDEST SWAP2 POP PUSH2 0xA5E SWAP1 POP DUP2 DUP4 PUSH2 0x278A JUMP JUMPDEST SWAP2 POP POP JUMPDEST PUSH1 0x2 DUP5 PUSH1 0x5 DUP2 GT ISZERO PUSH2 0xA76 JUMPI PUSH2 0xA76 PUSH2 0x2403 JUMP JUMPDEST EQ ISZERO PUSH2 0xA9A JUMPI PUSH1 0x0 PUSH2 0xA88 DUP3 DUP14 PUSH2 0x48B JUMP JUMPDEST SWAP2 POP PUSH2 0xA96 SWAP1 POP DUP2 DUP4 PUSH2 0x278A JUMP JUMPDEST SWAP2 POP POP JUMPDEST PUSH2 0x912 JUMP JUMPDEST PUSH2 0xAA7 PUSH2 0x21E1 JUMP JUMPDEST PUSH1 0x0 PUSH2 0xAB1 PUSH2 0x21E1 JUMP JUMPDEST PUSH2 0xAB9 PUSH2 0x2195 JUMP JUMPDEST PUSH1 0x0 DUP1 DUP1 DUP10 DUP1 JUMPDEST PUSH2 0xACA DUP11 DUP4 PUSH2 0x278A JUMP JUMPDEST DUP2 LT ISZERO PUSH2 0x213 JUMPI PUSH2 0xADB DUP2 DUP13 PUSH2 0x225 JUMP JUMPDEST SWAP2 SWAP7 POP SWAP5 POP SWAP3 POP PUSH2 0xAEC DUP4 DUP3 PUSH2 0x278A JUMP JUMPDEST SWAP1 POP DUP5 PUSH1 0x1 EQ ISZERO PUSH2 0xB14 JUMPI PUSH2 0xB03 DUP2 DUP13 DUP10 DUP10 PUSH2 0x10CF JUMP JUMPDEST PUSH2 0xB0D SWAP1 DUP3 PUSH2 0x278A JUMP JUMPDEST SWAP1 POP PUSH2 0xAC0 JUMP JUMPDEST DUP5 PUSH1 0x2 EQ ISZERO PUSH2 0xB29 JUMPI PUSH2 0xB03 DUP2 DUP13 DUP10 DUP10 PUSH2 0x10DE JUMP JUMPDEST DUP5 PUSH1 0x3 EQ ISZERO PUSH2 0xB3E JUMPI PUSH2 0xB03 DUP2 DUP13 DUP10 DUP10 PUSH2 0x10ED JUMP JUMPDEST PUSH1 0x1 DUP5 PUSH1 0x5 DUP2 GT ISZERO PUSH2 0xB52 JUMPI PUSH2 0xB52 PUSH2 0x2403 JUMP JUMPDEST EQ ISZERO PUSH2 0xB76 JUMPI PUSH1 0x0 PUSH2 0xB64 DUP3 DUP14 PUSH2 0x370 JUMP JUMPDEST SWAP2 POP PUSH2 0xB72 SWAP1 POP DUP2 DUP4 PUSH2 0x278A JUMP JUMPDEST SWAP2 POP POP JUMPDEST PUSH1 0x5 DUP5 PUSH1 0x5 DUP2 GT ISZERO PUSH2 0xB8A JUMPI PUSH2 0xB8A PUSH2 0x2403 JUMP JUMPDEST EQ ISZERO PUSH2 0xBAE JUMPI PUSH1 0x0 PUSH2 0xB9C DUP3 DUP14 PUSH2 0x38F JUMP JUMPDEST SWAP2 POP PUSH2 0xBAA SWAP1 POP DUP2 DUP4 PUSH2 0x278A JUMP JUMPDEST SWAP2 POP POP JUMPDEST PUSH1 0x0 DUP5 PUSH1 0x5 DUP2 GT ISZERO PUSH2 0xBC2 JUMPI PUSH2 0xBC2 PUSH2 0x2403 JUMP JUMPDEST EQ ISZERO PUSH2 0xBE6 JUMPI PUSH1 0x0 PUSH2 0xBD4 DUP3 DUP14 PUSH2 0x3A1 JUMP JUMPDEST SWAP2 POP PUSH2 0xBE2 SWAP1 POP DUP2 DUP4 PUSH2 0x278A JUMP JUMPDEST SWAP2 POP POP JUMPDEST PUSH1 0x2 DUP5 PUSH1 0x5 DUP2 GT ISZERO PUSH2 0xBFA JUMPI PUSH2 0xBFA PUSH2 0x2403 JUMP JUMPDEST EQ ISZERO PUSH2 0xC1E JUMPI PUSH1 0x0 PUSH2 0xC0C DUP3 DUP14 PUSH2 0x48B JUMP JUMPDEST SWAP2 POP PUSH2 0xC1A SWAP1 POP DUP2 DUP4 PUSH2 0x278A JUMP JUMPDEST SWAP2 POP POP JUMPDEST PUSH2 0xAC0 JUMP JUMPDEST PUSH1 0x40 DUP1 MLOAD DUP1 DUP3 ADD SWAP1 SWAP2 MSTORE PUSH1 0x60 DUP1 DUP3 MSTORE PUSH1 0x20 DUP3 ADD MSTORE PUSH1 0x0 PUSH2 0xC56 PUSH1 0x40 MLOAD DUP1 PUSH1 0x40 ADD PUSH1 0x40 MSTORE DUP1 PUSH1 0x60 DUP2 MSTORE PUSH1 0x20 ADD PUSH1 0x60 DUP2 MSTORE POP SWAP1 JUMP JUMPDEST PUSH2 0xC5E PUSH2 0x2226 JUMP JUMPDEST PUSH1 0x0 DUP1 DUP1 DUP10 DUP1 JUMPDEST PUSH2 0xC6F DUP11 DUP4 PUSH2 0x278A JUMP JUMPDEST DUP2 LT ISZERO PUSH2 0xDC1 JUMPI PUSH2 0xC80 DUP2 DUP13 PUSH2 0x225 JUMP JUMPDEST SWAP2 SWAP7 POP SWAP5 POP SWAP3 POP PUSH2 0xC91 DUP4 DUP3 PUSH2 0x278A JUMP JUMPDEST SWAP1 POP DUP5 PUSH1 0x1 EQ ISZERO PUSH2 0xCC0 JUMPI PUSH2 0xCAF DUP2 DUP13 PUSH2 0xCA9 PUSH2 0x10FC JUMP JUMPDEST DUP10 PUSH2 0x1115 JUMP JUMPDEST PUSH2 0xCB9 SWAP1 DUP3 PUSH2 0x278A JUMP JUMPDEST SWAP1 POP PUSH2 0xC65 JUMP JUMPDEST DUP5 PUSH1 0x2 EQ ISZERO PUSH2 0xCDC JUMPI PUSH2 0xCAF DUP2 DUP13 PUSH2 0xCD6 PUSH2 0x10FC JUMP JUMPDEST DUP10 PUSH2 0x1183 JUMP JUMPDEST PUSH1 0x1 DUP5 PUSH1 0x5 DUP2 GT ISZERO PUSH2 0xCF0 JUMPI PUSH2 0xCF0 PUSH2 0x2403 JUMP JUMPDEST EQ ISZERO PUSH2 0xD14 JUMPI PUSH1 0x0 PUSH2 0xD02 DUP3 DUP14 PUSH2 0x370 JUMP JUMPDEST SWAP2 POP PUSH2 0xD10 SWAP1 POP DUP2 DUP4 PUSH2 0x278A JUMP JUMPDEST SWAP2 POP POP JUMPDEST PUSH1 0x5 DUP5 PUSH1 0x5 DUP2 GT ISZERO PUSH2 0xD28 JUMPI PUSH2 0xD28 PUSH2 0x2403 JUMP JUMPDEST EQ ISZERO PUSH2 0xD4C JUMPI PUSH1 0x0 PUSH2 0xD3A DUP3 DUP14 PUSH2 0x38F JUMP JUMPDEST SWAP2 POP PUSH2 0xD48 SWAP1 POP DUP2 DUP4 PUSH2 0x278A JUMP JUMPDEST SWAP2 POP POP JUMPDEST PUSH1 0x0 DUP5 PUSH1 0x5 DUP2 GT ISZERO PUSH2 0xD60 JUMPI PUSH2 0xD60 PUSH2 0x2403 JUMP JUMPDEST EQ ISZERO PUSH2 0xD84 JUMPI PUSH1 0x0 PUSH2 0xD72 DUP3 DUP14 PUSH2 0x3A1 JUMP JUMPDEST SWAP2 POP PUSH2 0xD80 SWAP1 POP DUP2 DUP4 PUSH2 0x278A JUMP JUMPDEST SWAP2 POP POP JUMPDEST PUSH1 0x2 DUP5 PUSH1 0x5 DUP2 GT ISZERO PUSH2 0xD98 JUMPI PUSH2 0xD98 PUSH2 0x2403 JUMP JUMPDEST EQ ISZERO PUSH2 0xDBC JUMPI PUSH1 0x0 PUSH2 0xDAA DUP3 DUP14 PUSH2 0x48B JUMP JUMPDEST SWAP2 POP PUSH2 0xDB8 SWAP1 POP DUP2 DUP4 PUSH2 0x278A JUMP JUMPDEST SWAP2 POP POP JUMPDEST PUSH2 0xC65 JUMP JUMPDEST POP PUSH1 0x20 DUP6 ADD MLOAD DUP2 SWAP1 PUSH8 0xFFFFFFFFFFFFFFFF DUP2 GT ISZERO PUSH2 0xDE1 JUMPI PUSH2 0xDE1 PUSH2 0x22EF JUMP JUMPDEST PUSH1 0x40 MLOAD SWAP1 DUP1 DUP3 MSTORE DUP1 PUSH1 0x20 MUL PUSH1 0x20 ADD DUP3 ADD PUSH1 0x40 MSTORE DUP1 ISZERO PUSH2 0xE1A JUMPI DUP2 PUSH1 0x20 ADD JUMPDEST PUSH2 0xE07 PUSH2 0x2244 JUMP JUMPDEST DUP2 MSTORE PUSH1 0x20 ADD SWAP1 PUSH1 0x1 SWAP1 SUB SWAP1 DUP2 PUSH2 0xDFF JUMPI SWAP1 POP JUMPDEST POP DUP8 MSTORE PUSH1 0x40 DUP7 ADD MLOAD PUSH8 0xFFFFFFFFFFFFFFFF DUP2 GT ISZERO PUSH2 0xE3A JUMPI PUSH2 0xE3A PUSH2 0x22EF JUMP JUMPDEST PUSH1 0x40 MLOAD SWAP1 DUP1 DUP3 MSTORE DUP1 PUSH1 0x20 MUL PUSH1 0x20 ADD DUP3 ADD PUSH1 0x40 MSTORE DUP1 ISZERO PUSH2 0xE90 JUMPI DUP2 PUSH1 0x20 ADD JUMPDEST PUSH2 0xE7D PUSH1 0x40 DUP1 MLOAD PUSH1 0x60 DUP2 ADD SWAP1 SWAP2 MSTORE DUP1 PUSH1 0x0 DUP2 MSTORE PUSH1 0x20 ADD PUSH1 0x60 DUP2 MSTORE PUSH1 0x20 ADD PUSH1 0x60 DUP2 MSTORE POP SWAP1 JUMP JUMPDEST DUP2 MSTORE PUSH1 0x20 ADD SWAP1 PUSH1 0x1 SWAP1 SUB SWAP1 DUP2 PUSH2 0xE58 JUMPI SWAP1 POP JUMPDEST POP PUSH1 0x20 DUP9 ADD MSTORE JUMPDEST PUSH2 0xEA1 DUP11 DUP4 PUSH2 0x278A JUMP JUMPDEST DUP2 LT ISZERO PUSH2 0x213 JUMPI PUSH2 0xEB2 DUP2 DUP13 PUSH2 0x225 JUMP JUMPDEST SWAP2 SWAP7 POP SWAP5 POP SWAP3 POP PUSH2 0xEC3 DUP4 DUP3 PUSH2 0x278A JUMP JUMPDEST SWAP1 POP DUP5 PUSH1 0x1 EQ ISZERO PUSH2 0xEEB JUMPI PUSH2 0xEDA DUP2 DUP13 DUP10 DUP10 PUSH2 0x1115 JUMP JUMPDEST PUSH2 0xEE4 SWAP1 DUP3 PUSH2 0x278A JUMP JUMPDEST SWAP1 POP PUSH2 0xE97 JUMP JUMPDEST DUP5 PUSH1 0x2 EQ ISZERO PUSH2 0xF00 JUMPI PUSH2 0xEDA DUP2 DUP13 DUP10 DUP10 PUSH2 0x1183 JUMP JUMPDEST PUSH1 0x1 DUP5 PUSH1 0x5 DUP2 GT ISZERO PUSH2 0xF14 JUMPI PUSH2 0xF14 PUSH2 0x2403 JUMP JUMPDEST EQ ISZERO PUSH2 0xF38 JUMPI PUSH1 0x0 PUSH2 0xF26 DUP3 DUP14 PUSH2 0x370 JUMP JUMPDEST SWAP2 POP PUSH2 0xF34 SWAP1 POP DUP2 DUP4 PUSH2 0x278A JUMP JUMPDEST SWAP2 POP POP JUMPDEST PUSH1 0x5 DUP5 PUSH1 0x5 DUP2 GT ISZERO PUSH2 0xF4C JUMPI PUSH2 0xF4C PUSH2 0x2403 JUMP JUMPDEST EQ ISZERO PUSH2 0xF70 JUMPI PUSH1 0x0 PUSH2 0xF5E DUP3 DUP14 PUSH2 0x38F JUMP JUMPDEST SWAP2 POP PUSH2 0xF6C SWAP1 POP DUP2 DUP4 PUSH2 0x278A JUMP JUMPDEST SWAP2 POP POP JUMPDEST PUSH1 0x0 DUP5 PUSH1 0x5 DUP2 GT ISZERO PUSH2 0xF84 JUMPI PUSH2 0xF84 PUSH2 0x2403 JUMP JUMPDEST EQ ISZERO PUSH2 0xFA8 JUMPI PUSH1 0x0 PUSH2 0xF96 DUP3 DUP14 PUSH2 0x3A1 JUMP JUMPDEST SWAP2 POP PUSH2 0xFA4 SWAP1 POP DUP2 DUP4 PUSH2 0x278A JUMP JUMPDEST SWAP2 POP POP JUMPDEST PUSH1 0x2 DUP5 PUSH1 0x5 DUP2 GT ISZERO PUSH2 0xFBC JUMPI PUSH2 0xFBC PUSH2 0x2403 JUMP JUMPDEST EQ ISZERO PUSH2 0xFE0 JUMPI PUSH1 0x0 PUSH2 0xFCE DUP3 DUP14 PUSH2 0x48B JUMP JUMPDEST SWAP2 POP PUSH2 0xFDC SWAP1 POP DUP2 DUP4 PUSH2 0x278A JUMP JUMPDEST SWAP2 POP POP JUMPDEST PUSH2 0xE97 JUMP JUMPDEST PUSH1 0x0 DUP1 PUSH1 0x0 PUSH2 0xFF4 DUP8 DUP8 PUSH2 0x11F4 JUMP JUMPDEST SWAP2 POP SWAP2 POP PUSH2 0x1000 DUP6 ISZERO SWAP1 JUMP JUMPDEST ISZERO PUSH2 0x100E JUMPI PUSH1 0x1 DUP5 DUP2 PUSH2 0x295 JUMP JUMPDEST DUP2 DUP6 MSTORE PUSH1 0x0 DUP5 PUSH1 0x1 JUMPDEST PUSH1 0x20 MUL ADD MLOAD GT ISZERO PUSH2 0x2D5 JUMPI PUSH1 0x1 DUP5 DUP2 PUSH2 0x2C0 JUMP JUMPDEST PUSH1 0x0 DUP1 PUSH1 0x0 PUSH2 0x2EE DUP8 DUP8 PUSH2 0x11F4 JUMP JUMPDEST PUSH1 0x0 DUP1 PUSH1 0x0 PUSH2 0x33A DUP8 DUP8 PUSH2 0x120D JUMP JUMPDEST PUSH2 0x1051 PUSH2 0x21B3 JUMP JUMPDEST POP PUSH1 0x0 SWAP1 JUMP JUMPDEST PUSH1 0x0 DUP1 PUSH1 0x0 PUSH2 0x1066 DUP8 DUP8 PUSH2 0x1242 JUMP JUMPDEST SWAP2 POP SWAP2 POP PUSH2 0x1072 DUP6 ISZERO SWAP1 JUMP JUMPDEST ISZERO PUSH2 0x1081 JUMPI PUSH1 0x1 DUP5 PUSH1 0x4 PUSH2 0x295 JUMP JUMPDEST PUSH1 0x60 DUP6 ADD MLOAD PUSH1 0x80 DUP6 ADD MLOAD DUP2 MLOAD DUP5 SWAP3 SWAP2 PUSH2 0x1099 SWAP2 PUSH2 0x27DA JUMP JUMPDEST DUP2 MLOAD DUP2 LT PUSH2 0x10A9 JUMPI PUSH2 0x10A9 PUSH2 0x27C4 JUMP JUMPDEST PUSH1 0x20 SWAP1 DUP2 MUL SWAP2 SWAP1 SWAP2 ADD ADD MSTORE PUSH1 0x0 DUP5 PUSH1 0x4 JUMPDEST PUSH1 0x20 MUL ADD MLOAD GT ISZERO PUSH2 0x2D5 JUMPI PUSH1 0x1 DUP5 PUSH1 0x4 PUSH2 0x2C0 JUMP JUMPDEST PUSH1 0x0 DUP1 PUSH1 0x0 PUSH2 0x27F DUP8 DUP8 PUSH2 0x11F4 JUMP JUMPDEST PUSH1 0x0 DUP1 PUSH1 0x0 PUSH2 0x2EE DUP8 DUP8 PUSH2 0x54E JUMP JUMPDEST PUSH1 0x0 DUP1 PUSH1 0x0 PUSH2 0x33A DUP8 DUP8 PUSH2 0x54E JUMP JUMPDEST PUSH1 0x40 DUP1 MLOAD DUP1 DUP3 ADD SWAP1 SWAP2 MSTORE PUSH1 0x60 DUP1 DUP3 MSTORE PUSH1 0x20 DUP3 ADD MSTORE PUSH2 0x1051 JUMP JUMPDEST PUSH1 0x0 DUP1 PUSH1 0x0 PUSH2 0x1124 DUP8 DUP8 PUSH2 0x1294 JUMP JUMPDEST SWAP2 POP SWAP2 POP PUSH2 0x1130 DUP6 ISZERO SWAP1 JUMP JUMPDEST ISZERO PUSH2 0x113E JUMPI PUSH1 0x1 DUP5 DUP2 PUSH2 0x295 JUMP JUMPDEST DUP5 MLOAD PUSH1 0x20 DUP6 ADD MLOAD DUP2 MLOAD DUP5 SWAP3 SWAP2 PUSH2 0x1153 SWAP2 PUSH2 0x27DA JUMP JUMPDEST DUP2 MLOAD DUP2 LT PUSH2 0x1163 JUMPI PUSH2 0x1163 PUSH2 0x27C4 JUMP JUMPDEST PUSH1 0x20 SWAP1 DUP2 MUL SWAP2 SWAP1 SWAP2 ADD DUP2 ADD SWAP2 SWAP1 SWAP2 MSTORE DUP5 ADD MLOAD ISZERO PUSH2 0x2D5 JUMPI PUSH1 0x1 DUP5 DUP2 PUSH2 0x2C0 JUMP JUMPDEST PUSH1 0x0 DUP1 PUSH1 0x0 PUSH2 0x1192 DUP8 DUP8 PUSH2 0x1242 JUMP JUMPDEST SWAP2 POP SWAP2 POP PUSH2 0x119E DUP6 ISZERO SWAP1 JUMP JUMPDEST ISZERO PUSH2 0x11AD JUMPI PUSH1 0x1 DUP5 PUSH1 0x2 PUSH2 0x295 JUMP JUMPDEST PUSH1 0x20 DUP6 ADD MLOAD PUSH1 0x40 DUP6 ADD MLOAD DUP2 MLOAD DUP5 SWAP3 SWAP2 PUSH2 0x11C5 SWAP2 PUSH2 0x27DA JUMP JUMPDEST DUP2 MLOAD DUP2 LT PUSH2 0x11D5 JUMPI PUSH2 0x11D5 PUSH2 0x27C4 JUMP JUMPDEST PUSH1 0x20 SWAP1 DUP2 MUL SWAP2 SWAP1 SWAP2 ADD ADD MSTORE PUSH1 0x40 DUP5 ADD MLOAD ISZERO PUSH2 0x2D5 JUMPI PUSH1 0x1 DUP5 PUSH1 0x2 PUSH2 0x2C0 JUMP JUMPDEST PUSH1 0x60 PUSH1 0x0 PUSH2 0x1202 DUP5 DUP5 PUSH2 0x48B JUMP JUMPDEST SWAP2 POP SWAP2 POP SWAP3 POP SWAP3 SWAP1 POP JUMP JUMPDEST PUSH2 0x1215 PUSH2 0x2264 JUMP JUMPDEST PUSH1 0x0 DUP4 DUP2 DUP1 PUSH2 0x1224 DUP4 DUP8 PUSH2 0x3A1 JUMP JUMPDEST SWAP1 SWAP3 POP SWAP1 POP PUSH2 0x1233 DUP2 DUP5 PUSH2 0x278A JUMP JUMPDEST SWAP3 POP PUSH1 0x0 PUSH2 0x583 DUP5 DUP9 DUP6 PUSH2 0x12C9 JUMP JUMPDEST PUSH2 0x1267 PUSH1 0x40 DUP1 MLOAD PUSH1 0x60 DUP2 ADD SWAP1 SWAP2 MSTORE DUP1 PUSH1 0x0 DUP2 MSTORE PUSH1 0x20 ADD PUSH1 0x60 DUP2 MSTORE PUSH1 0x20 ADD PUSH1 0x60 DUP2 MSTORE POP SWAP1 JUMP JUMPDEST PUSH1 0x0 DUP4 DUP2 DUP1 PUSH2 0x1276 DUP4 DUP8 PUSH2 0x3A1 JUMP JUMPDEST SWAP1 SWAP3 POP SWAP1 POP PUSH2 0x1285 DUP2 DUP5 PUSH2 0x278A JUMP JUMPDEST SWAP3 POP PUSH1 0x0 PUSH2 0x583 DUP5 DUP9 DUP6 PUSH2 0x1477 JUMP JUMPDEST PUSH2 0x129C PUSH2 0x2244 JUMP JUMPDEST PUSH1 0x0 DUP4 DUP2 DUP1 PUSH2 0x12AB DUP4 DUP8 PUSH2 0x3A1 JUMP JUMPDEST SWAP1 SWAP3 POP SWAP1 POP PUSH2 0x12BA DUP2 DUP5 PUSH2 0x278A JUMP JUMPDEST SWAP3 POP PUSH1 0x0 PUSH2 0x583 DUP5 DUP9 DUP6 PUSH2 0x1629 JUMP JUMPDEST PUSH2 0x12D1 PUSH2 0x2264 JUMP JUMPDEST PUSH1 0x0 PUSH2 0x12DB PUSH2 0x2264 JUMP JUMPDEST PUSH2 0x12E3 PUSH2 0x228C JUMP JUMPDEST PUSH1 0x0 DUP1 DUP1 DUP10 DUP1 JUMPDEST PUSH2 0x12F4 DUP11 DUP4 PUSH2 0x278A JUMP JUMPDEST DUP2 LT ISZERO PUSH2 0x213 JUMPI PUSH2 0x1305 DUP2 DUP13 PUSH2 0x225 JUMP JUMPDEST SWAP2 SWAP7 POP SWAP5 POP SWAP3 POP PUSH2 0x1316 DUP4 DUP3 PUSH2 0x278A JUMP JUMPDEST SWAP1 POP DUP5 PUSH1 0x1 EQ ISZERO PUSH2 0x133E JUMPI PUSH2 0x132D DUP2 DUP13 DUP10 DUP10 PUSH2 0x1798 JUMP JUMPDEST PUSH2 0x1337 SWAP1 DUP3 PUSH2 0x278A JUMP JUMPDEST SWAP1 POP PUSH2 0x12EA JUMP JUMPDEST DUP5 PUSH1 0x2 EQ ISZERO PUSH2 0x1353 JUMPI PUSH2 0x132D DUP2 DUP13 DUP10 DUP10 PUSH2 0x1833 JUMP JUMPDEST DUP5 PUSH1 0x3 EQ ISZERO PUSH2 0x1368 JUMPI PUSH2 0x132D DUP2 DUP13 DUP10 DUP10 PUSH2 0x18A2 JUMP JUMPDEST DUP5 PUSH1 0x4 EQ ISZERO PUSH2 0x137D JUMPI PUSH2 0x132D DUP2 DUP13 DUP10 DUP10 PUSH2 0x1911 JUMP JUMPDEST DUP5 PUSH1 0x5 EQ ISZERO PUSH2 0x1392 JUMPI PUSH2 0x132D DUP2 DUP13 DUP10 DUP10 PUSH2 0x1980 JUMP JUMPDEST PUSH1 0x1 DUP5 PUSH1 0x5 DUP2 GT ISZERO PUSH2 0x13A6 JUMPI PUSH2 0x13A6 PUSH2 0x2403 JUMP JUMPDEST EQ ISZERO PUSH2 0x13CA JUMPI PUSH1 0x0 PUSH2 0x13B8 DUP3 DUP14 PUSH2 0x370 JUMP JUMPDEST SWAP2 POP PUSH2 0x13C6 SWAP1 POP DUP2 DUP4 PUSH2 0x278A JUMP JUMPDEST SWAP2 POP POP JUMPDEST PUSH1 0x5 DUP5 PUSH1 0x5 DUP2 GT ISZERO PUSH2 0x13DE JUMPI PUSH2 0x13DE PUSH2 0x2403 JUMP JUMPDEST EQ ISZERO PUSH2 0x1402 JUMPI PUSH1 0x0 PUSH2 0x13F0 DUP3 DUP14 PUSH2 0x38F JUMP JUMPDEST SWAP2 POP PUSH2 0x13FE SWAP1 POP DUP2 DUP4 PUSH2 0x278A JUMP JUMPDEST SWAP2 POP POP JUMPDEST PUSH1 0x0 DUP5 PUSH1 0x5 DUP2 GT ISZERO PUSH2 0x1416 JUMPI PUSH2 0x1416 PUSH2 0x2403 JUMP JUMPDEST EQ ISZERO PUSH2 0x143A JUMPI PUSH1 0x0 PUSH2 0x1428 DUP3 DUP14 PUSH2 0x3A1 JUMP JUMPDEST SWAP2 POP PUSH2 0x1436 SWAP1 POP DUP2 DUP4 PUSH2 0x278A JUMP JUMPDEST SWAP2 POP POP JUMPDEST PUSH1 0x2 DUP5 PUSH1 0x5 DUP2 GT ISZERO PUSH2 0x144E JUMPI PUSH2 0x144E PUSH2 0x2403 JUMP JUMPDEST EQ ISZERO PUSH2 0x1472 JUMPI PUSH1 0x0 PUSH2 0x1460 DUP3 DUP14 PUSH2 0x48B JUMP JUMPDEST SWAP2 POP PUSH2 0x146E SWAP1 POP DUP2 DUP4 PUSH2 0x278A JUMP JUMPDEST SWAP2 POP POP JUMPDEST PUSH2 0x12EA JUMP JUMPDEST PUSH2 0x149C PUSH1 0x40 DUP1 MLOAD PUSH1 0x60 DUP2 ADD SWAP1 SWAP2 MSTORE DUP1 PUSH1 0x0 DUP2 MSTORE PUSH1 0x20 ADD PUSH1 0x60 DUP2 MSTORE PUSH1 0x20 ADD PUSH1 0x60 DUP2 MSTORE POP SWAP1 JUMP JUMPDEST PUSH1 0x40 DUP1 MLOAD PUSH1 0x60 DUP1 DUP3 ADD DUP4 MSTORE PUSH1 0x0 DUP1 DUP4 MSTORE PUSH1 0x20 DUP4 ADD DUP3 SWAP1 MSTORE SWAP3 DUP3 ADD MSTORE PUSH2 0x14BF PUSH2 0x2195 JUMP JUMPDEST PUSH1 0x0 DUP1 DUP1 DUP10 DUP1 JUMPDEST PUSH2 0x14D0 DUP11 DUP4 PUSH2 0x278A JUMP JUMPDEST DUP2 LT ISZERO PUSH2 0x213 JUMPI PUSH2 0x14E1 DUP2 DUP13 PUSH2 0x225 JUMP JUMPDEST SWAP2 SWAP7 POP SWAP5 POP SWAP3 POP PUSH2 0x14F2 DUP4 DUP3 PUSH2 0x278A JUMP JUMPDEST SWAP1 POP DUP5 PUSH1 0x1 EQ ISZERO PUSH2 0x151A JUMPI PUSH2 0x1509 DUP2 DUP13 DUP10 DUP10 PUSH2 0x19C5 JUMP JUMPDEST PUSH2 0x1513 SWAP1 DUP3 PUSH2 0x278A JUMP JUMPDEST SWAP1 POP PUSH2 0x14C6 JUMP JUMPDEST DUP5 PUSH1 0x2 EQ ISZERO PUSH2 0x152F JUMPI PUSH2 0x1509 DUP2 DUP13 DUP10 DUP10 PUSH2 0x102B JUMP JUMPDEST DUP5 PUSH1 0x3 EQ ISZERO PUSH2 0x1544 JUMPI PUSH2 0x1509 DUP2 DUP13 DUP10 DUP10 PUSH2 0x1A2F JUMP JUMPDEST PUSH1 0x1 DUP5 PUSH1 0x5 DUP2 GT ISZERO PUSH2 0x1558 JUMPI PUSH2 0x1558 PUSH2 0x2403 JUMP JUMPDEST EQ ISZERO PUSH2 0x157C JUMPI PUSH1 0x0 PUSH2 0x156A DUP3 DUP14 PUSH2 0x370 JUMP JUMPDEST SWAP2 POP PUSH2 0x1578 SWAP1 POP DUP2 DUP4 PUSH2 0x278A JUMP JUMPDEST SWAP2 POP POP JUMPDEST PUSH1 0x5 DUP5 PUSH1 0x5 DUP2 GT ISZERO PUSH2 0x1590 JUMPI PUSH2 0x1590 PUSH2 0x2403 JUMP JUMPDEST EQ ISZERO PUSH2 0x15B4 JUMPI PUSH1 0x0 PUSH2 0x15A2 DUP3 DUP14 PUSH2 0x38F JUMP JUMPDEST SWAP2 POP PUSH2 0x15B0 SWAP1 POP DUP2 DUP4 PUSH2 0x278A JUMP JUMPDEST SWAP2 POP POP JUMPDEST PUSH1 0x0 DUP5 PUSH1 0x5 DUP2 GT ISZERO PUSH2 0x15C8 JUMPI PUSH2 0x15C8 PUSH2 0x2403 JUMP JUMPDEST EQ ISZERO PUSH2 0x15EC JUMPI PUSH1 0x0 PUSH2 0x15DA DUP3 DUP14 PUSH2 0x3A1 JUMP JUMPDEST SWAP2 POP PUSH2 0x15E8 SWAP1 POP DUP2 DUP4 PUSH2 0x278A JUMP JUMPDEST SWAP2 POP POP JUMPDEST PUSH1 0x2 DUP5 PUSH1 0x5 DUP2 GT ISZERO PUSH2 0x1600 JUMPI PUSH2 0x1600 PUSH2 0x2403 JUMP JUMPDEST EQ ISZERO PUSH2 0x1624 JUMPI PUSH1 0x0 PUSH2 0x1612 DUP3 DUP14 PUSH2 0x48B JUMP JUMPDEST SWAP2 POP PUSH2 0x1620 SWAP1 POP DUP2 DUP4 PUSH2 0x278A JUMP JUMPDEST SWAP2 POP POP JUMPDEST PUSH2 0x14C6 JUMP JUMPDEST PUSH2 0x1631 PUSH2 0x2244 JUMP JUMPDEST PUSH1 0x0 PUSH2 0x163B PUSH2 0x2244 JUMP JUMPDEST PUSH2 0x1643 PUSH2 0x2226 JUMP JUMPDEST PUSH1 0x0 DUP1 DUP1 DUP10 DUP1 JUMPDEST PUSH2 0x1654 DUP11 DUP4 PUSH2 0x278A JUMP JUMPDEST DUP2 LT ISZERO PUSH2 0x213 JUMPI PUSH2 0x1665 DUP2 DUP13 PUSH2 0x225 JUMP JUMPDEST SWAP2 SWAP7 POP SWAP5 POP SWAP3 POP PUSH2 0x1676 DUP4 DUP3 PUSH2 0x278A JUMP JUMPDEST SWAP1 POP DUP5 PUSH1 0x1 EQ ISZERO PUSH2 0x169E JUMPI PUSH2 0x168D DUP2 DUP13 DUP10 DUP10 PUSH2 0x1A3E JUMP JUMPDEST PUSH2 0x1697 SWAP1 DUP3 PUSH2 0x278A JUMP JUMPDEST SWAP1 POP PUSH2 0x164A JUMP JUMPDEST DUP5 PUSH1 0x2 EQ ISZERO PUSH2 0x16B3 JUMPI PUSH2 0x168D DUP2 DUP13 DUP10 DUP10 PUSH2 0x1A74 JUMP JUMPDEST PUSH1 0x1 DUP5 PUSH1 0x5 DUP2 GT ISZERO PUSH2 0x16C7 JUMPI PUSH2 0x16C7 PUSH2 0x2403 JUMP JUMPDEST EQ ISZERO PUSH2 0x16EB JUMPI PUSH1 0x0 PUSH2 0x16D9 DUP3 DUP14 PUSH2 0x370 JUMP JUMPDEST SWAP2 POP PUSH2 0x16E7 SWAP1 POP DUP2 DUP4 PUSH2 0x278A JUMP JUMPDEST SWAP2 POP POP JUMPDEST PUSH1 0x5 DUP5 PUSH1 0x5 DUP2 GT ISZERO PUSH2 0x16FF JUMPI PUSH2 0x16FF PUSH2 0x2403 JUMP JUMPDEST EQ ISZERO PUSH2 0x1723 JUMPI PUSH1 0x0 PUSH2 0x1711 DUP3 DUP14 PUSH2 0x38F JUMP JUMPDEST SWAP2 POP PUSH2 0x171F SWAP1 POP DUP2 DUP4 PUSH2 0x278A JUMP JUMPDEST SWAP2 POP POP JUMPDEST PUSH1 0x0 DUP5 PUSH1 0x5 DUP2 GT ISZERO PUSH2 0x1737 JUMPI PUSH2 0x1737 PUSH2 0x2403 JUMP JUMPDEST EQ ISZERO PUSH2 0x175B JUMPI PUSH1 0x0 PUSH2 0x1749 DUP3 DUP14 PUSH2 0x3A1 JUMP JUMPDEST SWAP2 POP PUSH2 0x1757 SWAP1 POP DUP2 DUP4 PUSH2 0x278A JUMP JUMPDEST SWAP2 POP POP JUMPDEST PUSH1 0x2 DUP5 PUSH1 0x5 DUP2 GT ISZERO PUSH2 0x176F JUMPI PUSH2 0x176F PUSH2 0x2403 JUMP JUMPDEST EQ ISZERO PUSH2 0x1793 JUMPI PUSH1 0x0 PUSH2 0x1781 DUP3 DUP14 PUSH2 0x48B JUMP JUMPDEST SWAP2 POP PUSH2 0x178F SWAP1 POP DUP2 DUP4 PUSH2 0x278A JUMP JUMPDEST SWAP2 POP POP JUMPDEST PUSH2 0x164A JUMP JUMPDEST PUSH1 0x0 DUP1 PUSH1 0x0 PUSH2 0x17A7 DUP8 DUP8 PUSH2 0x1AAF JUMP JUMPDEST SWAP2 POP SWAP2 POP PUSH1 0x0 PUSH2 0x17B6 DUP4 PUSH2 0x1ABC JUMP JUMPDEST SWAP1 POP DUP6 PUSH2 0x17DB JUMPI PUSH1 0x1 DUP6 DUP2 JUMPDEST PUSH1 0x20 MUL ADD DUP2 DUP2 MLOAD PUSH2 0x17D3 SWAP2 SWAP1 PUSH2 0x278A JUMP JUMPDEST SWAP1 MSTORE POP PUSH2 0x1828 JUMP JUMPDEST DUP6 DUP2 PUSH1 0x6 DUP2 GT ISZERO PUSH2 0x17EE JUMPI PUSH2 0x17EE PUSH2 0x2403 JUMP JUMPDEST SWAP1 DUP2 PUSH1 0x6 DUP2 GT ISZERO PUSH2 0x1801 JUMPI PUSH2 0x1801 PUSH2 0x2403 JUMP JUMPDEST SWAP1 MSTORE POP PUSH1 0x20 DUP6 ADD MLOAD ISZERO PUSH2 0x1828 JUMPI PUSH1 0x1 DUP6 DUP2 JUMPDEST PUSH1 0x20 MUL ADD DUP2 DUP2 MLOAD PUSH2 0x1824 SWAP2 SWAP1 PUSH2 0x27DA JUMP JUMPDEST SWAP1 MSTORE POP JUMPDEST POP SWAP7 SWAP6 POP POP POP POP POP POP JUMP JUMPDEST PUSH1 0x0 DUP1 PUSH1 0x0 PUSH2 0x1842 DUP8 DUP8 PUSH2 0x1AAF JUMP JUMPDEST SWAP2 POP SWAP2 POP PUSH1 0x0 PUSH2 0x1851 DUP4 PUSH2 0x1ABC JUMP JUMPDEST SWAP1 POP DUP6 PUSH2 0x1862 JUMPI PUSH1 0x1 DUP6 PUSH1 0x2 PUSH2 0x17C2 JUMP JUMPDEST PUSH1 0x20 DUP7 ADD DUP2 PUSH1 0x6 DUP2 GT ISZERO PUSH2 0x1878 JUMPI PUSH2 0x1878 PUSH2 0x2403 JUMP JUMPDEST SWAP1 DUP2 PUSH1 0x6 DUP2 GT ISZERO PUSH2 0x188B JUMPI PUSH2 0x188B PUSH2 0x2403 JUMP JUMPDEST SWAP1 MSTORE POP PUSH1 0x40 DUP6 ADD MLOAD ISZERO PUSH2 0x1828 JUMPI PUSH1 0x1 DUP6 PUSH1 0x2 PUSH2 0x1813 JUMP JUMPDEST PUSH1 0x0 DUP1 PUSH1 0x0 PUSH2 0x18B1 DUP8 DUP8 PUSH2 0x1AAF JUMP JUMPDEST SWAP2 POP SWAP2 POP PUSH1 0x0 PUSH2 0x18C0 DUP4 PUSH2 0x1ABC JUMP JUMPDEST SWAP1 POP DUP6 PUSH2 0x18D1 JUMPI PUSH1 0x1 DUP6 PUSH1 0x3 PUSH2 0x17C2 JUMP JUMPDEST PUSH1 0x40 DUP7 ADD DUP2 PUSH1 0x6 DUP2 GT ISZERO PUSH2 0x18E7 JUMPI PUSH2 0x18E7 PUSH2 0x2403 JUMP JUMPDEST SWAP1 DUP2 PUSH1 0x6 DUP2 GT ISZERO PUSH2 0x18FA JUMPI PUSH2 0x18FA PUSH2 0x2403 JUMP JUMPDEST SWAP1 MSTORE POP PUSH1 0x60 DUP6 ADD MLOAD ISZERO PUSH2 0x1828 JUMPI PUSH1 0x1 DUP6 PUSH1 0x3 PUSH2 0x1813 JUMP JUMPDEST PUSH1 0x0 DUP1 PUSH1 0x0 PUSH2 0x1920 DUP8 DUP8 PUSH2 0x1AAF JUMP JUMPDEST SWAP2 POP SWAP2 POP PUSH1 0x0 PUSH2 0x192F DUP4 PUSH2 0x1ABC JUMP JUMPDEST SWAP1 POP DUP6 PUSH2 0x1940 JUMPI PUSH1 0x1 DUP6 PUSH1 0x4 PUSH2 0x17C2 JUMP JUMPDEST PUSH1 0x60 DUP7 ADD DUP2 PUSH1 0x6 DUP2 GT ISZERO PUSH2 0x1956 JUMPI PUSH2 0x1956 PUSH2 0x2403 JUMP JUMPDEST SWAP1 DUP2 PUSH1 0x6 DUP2 GT ISZERO PUSH2 0x1969 JUMPI PUSH2 0x1969 PUSH2 0x2403 JUMP JUMPDEST SWAP1 MSTORE POP PUSH1 0x80 DUP6 ADD MLOAD ISZERO PUSH2 0x1828 JUMPI PUSH1 0x1 DUP6 PUSH1 0x4 PUSH2 0x1813 JUMP JUMPDEST PUSH1 0x0 DUP1 PUSH1 0x0 PUSH2 0x198F DUP8 DUP8 PUSH2 0x11F4 JUMP JUMPDEST SWAP2 POP SWAP2 POP PUSH2 0x199B DUP6 ISZERO SWAP1 JUMP JUMPDEST ISZERO PUSH2 0x19AA JUMPI PUSH1 0x1 DUP5 PUSH1 0x5 PUSH2 0x295 JUMP JUMPDEST PUSH1 0x80 DUP6 ADD DUP3 SWAP1 MSTORE PUSH1 0xA0 DUP5 ADD MLOAD ISZERO PUSH2 0x2D5 JUMPI PUSH1 0x1 DUP5 PUSH1 0x5 PUSH2 0x2C0 JUMP JUMPDEST PUSH1 0x0 DUP1 PUSH1 0x0 PUSH2 0x19D4 DUP8 DUP8 PUSH2 0x1AAF JUMP JUMPDEST SWAP2 POP SWAP2 POP PUSH1 0x0 PUSH2 0x19E3 DUP4 PUSH2 0x1ABC JUMP JUMPDEST SWAP1 POP DUP6 PUSH2 0x19F3 JUMPI PUSH1 0x1 DUP6 DUP2 PUSH2 0x17C2 JUMP JUMPDEST DUP6 DUP2 PUSH1 0x6 DUP2 GT ISZERO PUSH2 0x1A06 JUMPI PUSH2 0x1A06 PUSH2 0x2403 JUMP JUMPDEST SWAP1 DUP2 PUSH1 0x6 DUP2 GT ISZERO PUSH2 0x1A19 JUMPI PUSH2 0x1A19 PUSH2 0x2403 JUMP JUMPDEST SWAP1 MSTORE POP PUSH1 0x20 DUP6 ADD MLOAD ISZERO PUSH2 0x1828 JUMPI PUSH1 0x1 DUP6 DUP2 PUSH2 0x1813 JUMP JUMPDEST PUSH1 0x0 DUP1 PUSH1 0x0 PUSH2 0x33A DUP8 DUP8 PUSH2 0x11F4 JUMP JUMPDEST PUSH1 0x0 DUP1 PUSH1 0x0 PUSH2 0x1A4D DUP8 DUP8 PUSH2 0x1B4A JUMP JUMPDEST SWAP2 POP SWAP2 POP PUSH2 0x1A59 DUP6 ISZERO SWAP1 JUMP JUMPDEST ISZERO PUSH2 0x1A67 JUMPI PUSH1 0x1 DUP5 DUP2 PUSH2 0x295 JUMP JUMPDEST DUP2 DUP6 MSTORE PUSH1 0x0 DUP5 PUSH1 0x1 PUSH2 0x1017 JUMP JUMPDEST PUSH1 0x0 DUP1 PUSH1 0x0 PUSH2 0x1A83 DUP8 DUP8 PUSH2 0x1B7F JUMP JUMPDEST SWAP2 POP SWAP2 POP PUSH2 0x1A8F DUP6 ISZERO SWAP1 JUMP JUMPDEST ISZERO PUSH2 0x1A9E JUMPI PUSH1 0x1 DUP5 PUSH1 0x2 PUSH2 0x295 JUMP JUMPDEST PUSH1 0x20 DUP6 ADD DUP3 SWAP1 MSTORE PUSH1 0x0 DUP5 PUSH1 0x2 PUSH2 0x316 JUMP JUMPDEST PUSH1 0x0 DUP1 PUSH2 0x1202 DUP5 DUP5 PUSH2 0x1BB4 JUMP JUMPDEST PUSH1 0x0 DUP2 PUSH1 0x7 SIGNEXTEND PUSH1 0x0 EQ ISZERO PUSH2 0x1AD2 JUMPI POP PUSH1 0x0 SWAP2 SWAP1 POP JUMP JUMPDEST DUP2 PUSH1 0x7 SIGNEXTEND PUSH1 0x1 EQ ISZERO PUSH2 0x1AE6 JUMPI POP PUSH1 0x1 SWAP2 SWAP1 POP JUMP JUMPDEST DUP2 PUSH1 0x7 SIGNEXTEND PUSH1 0x2 EQ ISZERO PUSH2 0x1AFA JUMPI POP PUSH1 0x2 SWAP2 SWAP1 POP JUMP JUMPDEST DUP2 PUSH1 0x7 SIGNEXTEND PUSH1 0x3 EQ ISZERO PUSH2 0x1B0E JUMPI POP PUSH1 0x3 SWAP2 SWAP1 POP JUMP JUMPDEST DUP2 PUSH1 0x7 SIGNEXTEND PUSH1 0x4 EQ ISZERO PUSH2 0x1B22 JUMPI POP PUSH1 0x4 SWAP2 SWAP1 POP JUMP JUMPDEST DUP2 PUSH1 0x7 SIGNEXTEND PUSH1 0x5 EQ ISZERO PUSH2 0x1B36 JUMPI POP PUSH1 0x5 SWAP2 SWAP1 POP JUMP JUMPDEST DUP2 PUSH1 0x7 SIGNEXTEND PUSH1 0x6 EQ ISZERO PUSH2 0x2B JUMPI POP PUSH1 0x6 SWAP2 SWAP1 POP JUMP JUMPDEST PUSH2 0x1B52 PUSH2 0x22AA JUMP JUMPDEST PUSH1 0x0 DUP4 DUP2 DUP1 PUSH2 0x1B61 DUP4 DUP8 PUSH2 0x3A1 JUMP JUMPDEST SWAP1 SWAP3 POP SWAP1 POP PUSH2 0x1B70 DUP2 DUP5 PUSH2 0x278A JUMP JUMPDEST SWAP3 POP PUSH1 0x0 PUSH2 0x583 DUP5 DUP9 DUP6 PUSH2 0x1BC4 JUMP JUMPDEST PUSH2 0x1B87 PUSH2 0x22C8 JUMP JUMPDEST PUSH1 0x0 DUP4 DUP2 DUP1 PUSH2 0x1B96 DUP4 DUP8 PUSH2 0x3A1 JUMP JUMPDEST SWAP1 SWAP3 POP SWAP1 POP PUSH2 0x1BA5 DUP2 DUP5 PUSH2 0x278A JUMP JUMPDEST SWAP3 POP PUSH1 0x0 PUSH2 0x583 DUP5 DUP9 DUP6 PUSH2 0x1F35 JUMP JUMPDEST PUSH1 0x0 DUP1 PUSH1 0x0 DUP1 PUSH2 0x382 DUP7 DUP7 PUSH2 0x3A1 JUMP JUMPDEST PUSH2 0x1BCC PUSH2 0x22AA JUMP JUMPDEST PUSH1 0x0 PUSH2 0x1BD6 PUSH2 0x22AA JUMP JUMPDEST PUSH2 0x1BDE PUSH2 0x2208 JUMP JUMPDEST PUSH1 0x0 DUP1 DUP1 DUP10 DUP1 JUMPDEST PUSH2 0x1BEF DUP11 DUP4 PUSH2 0x278A JUMP JUMPDEST DUP2 LT ISZERO PUSH2 0x1D64 JUMPI PUSH2 0x1C00 DUP2 DUP13 PUSH2 0x225 JUMP JUMPDEST SWAP2 SWAP7 POP SWAP5 POP SWAP3 POP PUSH2 0x1C11 DUP4 DUP3 PUSH2 0x278A JUMP JUMPDEST SWAP1 POP DUP5 PUSH1 0x1 EQ ISZERO PUSH2 0x1C39 JUMPI PUSH2 0x1C28 DUP2 DUP13 DUP10 DUP10 PUSH2 0xFE5 JUMP JUMPDEST PUSH2 0x1C32 SWAP1 DUP3 PUSH2 0x278A JUMP JUMPDEST SWAP1 POP PUSH2 0x1BE5 JUMP JUMPDEST DUP5 PUSH1 0x2 EQ ISZERO PUSH2 0x1C4E JUMPI PUSH2 0x1C28 DUP2 DUP13 DUP10 DUP10 PUSH2 0x102B JUMP JUMPDEST DUP5 PUSH1 0x3 EQ ISZERO PUSH2 0x1C63 JUMPI PUSH2 0x1C28 DUP2 DUP13 DUP10 DUP10 PUSH2 0x18A2 JUMP JUMPDEST DUP5 PUSH1 0x4 EQ ISZERO PUSH2 0x1C7F JUMPI PUSH2 0x1C28 DUP2 DUP13 PUSH2 0x1C79 PUSH2 0x20B9 JUMP JUMPDEST DUP10 PUSH2 0x20C1 JUMP JUMPDEST PUSH1 0x1 DUP5 PUSH1 0x5 DUP2 GT ISZERO PUSH2 0x1C93 JUMPI PUSH2 0x1C93 PUSH2 0x2403 JUMP JUMPDEST EQ ISZERO PUSH2 0x1CB7 JUMPI PUSH1 0x0 PUSH2 0x1CA5 DUP3 DUP14 PUSH2 0x370 JUMP JUMPDEST SWAP2 POP PUSH2 0x1CB3 SWAP1 POP DUP2 DUP4 PUSH2 0x278A JUMP JUMPDEST SWAP2 POP POP JUMPDEST PUSH1 0x5 DUP5 PUSH1 0x5 DUP2 GT ISZERO PUSH2 0x1CCB JUMPI PUSH2 0x1CCB PUSH2 0x2403 JUMP JUMPDEST EQ ISZERO PUSH2 0x1CEF JUMPI PUSH1 0x0 PUSH2 0x1CDD DUP3 DUP14 PUSH2 0x38F JUMP JUMPDEST SWAP2 POP PUSH2 0x1CEB SWAP1 POP DUP2 DUP4 PUSH2 0x278A JUMP JUMPDEST SWAP2 POP POP JUMPDEST PUSH1 0x0 DUP5 PUSH1 0x5 DUP2 GT ISZERO PUSH2 0x1D03 JUMPI PUSH2 0x1D03 PUSH2 0x2403 JUMP JUMPDEST EQ ISZERO PUSH2 0x1D27 JUMPI PUSH1 0x0 PUSH2 0x1D15 DUP3 DUP14 PUSH2 0x3A1 JUMP JUMPDEST SWAP2 POP PUSH2 0x1D23 SWAP1 POP DUP2 DUP4 PUSH2 0x278A JUMP JUMPDEST SWAP2 POP POP JUMPDEST PUSH1 0x2 DUP5 PUSH1 0x5 DUP2 GT ISZERO PUSH2 0x1D3B JUMPI PUSH2 0x1D3B PUSH2 0x2403 JUMP JUMPDEST EQ ISZERO PUSH2 0x1D5F JUMPI PUSH1 0x0 PUSH2 0x1D4D DUP3 DUP14 PUSH2 0x48B JUMP JUMPDEST SWAP2 POP PUSH2 0x1D5B SWAP1 POP DUP2 DUP4 PUSH2 0x278A JUMP JUMPDEST SWAP2 POP POP JUMPDEST PUSH2 0x1BE5 JUMP JUMPDEST POP PUSH1 0x80 DUP6 ADD MLOAD DUP2 SWAP1 PUSH8 0xFFFFFFFFFFFFFFFF DUP2 GT ISZERO PUSH2 0x1D84 JUMPI PUSH2 0x1D84 PUSH2 0x22EF JUMP JUMPDEST PUSH1 0x40 MLOAD SWAP1 DUP1 DUP3 MSTORE DUP1 PUSH1 0x20 MUL PUSH1 0x20 ADD DUP3 ADD PUSH1 0x40 MSTORE DUP1 ISZERO PUSH2 0x1DAD JUMPI DUP2 PUSH1 0x20 ADD PUSH1 0x20 DUP3 MUL DUP1 CALLDATASIZE DUP4 CALLDATACOPY ADD SWAP1 POP JUMPDEST POP PUSH1 0x60 DUP9 ADD MSTORE JUMPDEST PUSH2 0x1DBE DUP11 DUP4 PUSH2 0x278A JUMP JUMPDEST DUP2 LT ISZERO PUSH2 0x213 JUMPI PUSH2 0x1DCF DUP2 DUP13 PUSH2 0x225 JUMP JUMPDEST SWAP2 SWAP7 POP SWAP5 POP SWAP3 POP PUSH2 0x1DE0 DUP4 DUP3 PUSH2 0x278A JUMP JUMPDEST SWAP1 POP DUP5 PUSH1 0x1 EQ ISZERO PUSH2 0x1E09 JUMPI PUSH2 0x1DF8 DUP2 DUP13 PUSH2 0x956 PUSH2 0x20B9 JUMP JUMPDEST PUSH2 0x1E02 SWAP1 DUP3 PUSH2 0x278A JUMP JUMPDEST SWAP1 POP PUSH2 0x1DB4 JUMP JUMPDEST DUP5 PUSH1 0x2 EQ ISZERO PUSH2 0x1E1F JUMPI PUSH2 0x1DF8 DUP2 DUP13 PUSH2 0x983 PUSH2 0x20B9 JUMP JUMPDEST DUP5 PUSH1 0x3 EQ ISZERO PUSH2 0x1E3B JUMPI PUSH2 0x1DF8 DUP2 DUP13 PUSH2 0x1E35 PUSH2 0x20B9 JUMP JUMPDEST DUP10 PUSH2 0x18A2 JUMP JUMPDEST DUP5 PUSH1 0x4 EQ ISZERO PUSH2 0x1E50 JUMPI PUSH2 0x1DF8 DUP2 DUP13 DUP10 DUP10 PUSH2 0x20C1 JUMP JUMPDEST PUSH1 0x1 DUP5 PUSH1 0x5 DUP2 GT ISZERO PUSH2 0x1E64 JUMPI PUSH2 0x1E64 PUSH2 0x2403 JUMP JUMPDEST EQ ISZERO PUSH2 0x1E88 JUMPI PUSH1 0x0 PUSH2 0x1E76 DUP3 DUP14 PUSH2 0x370 JUMP JUMPDEST SWAP2 POP PUSH2 0x1E84 SWAP1 POP DUP2 DUP4 PUSH2 0x278A JUMP JUMPDEST SWAP2 POP POP JUMPDEST PUSH1 0x5 DUP5 PUSH1 0x5 DUP2 GT ISZERO PUSH2 0x1E9C JUMPI PUSH2 0x1E9C PUSH2 0x2403 JUMP JUMPDEST EQ ISZERO PUSH2 0x1EC0 JUMPI PUSH1 0x0 PUSH2 0x1EAE DUP3 DUP14 PUSH2 0x38F JUMP JUMPDEST SWAP2 POP PUSH2 0x1EBC SWAP1 POP DUP2 DUP4 PUSH2 0x278A JUMP JUMPDEST SWAP2 POP POP JUMPDEST PUSH1 0x0 DUP5 PUSH1 0x5 DUP2 GT ISZERO PUSH2 0x1ED4 JUMPI PUSH2 0x1ED4 PUSH2 0x2403 JUMP JUMPDEST EQ ISZERO PUSH2 0x1EF8 JUMPI PUSH1 0x0 PUSH2 0x1EE6 DUP3 DUP14 PUSH2 0x3A1 JUMP JUMPDEST SWAP2 POP PUSH2 0x1EF4 SWAP1 POP DUP2 DUP4 PUSH2 0x278A JUMP JUMPDEST SWAP2 POP POP JUMPDEST PUSH1 0x2 DUP5 PUSH1 0x5 DUP2 GT ISZERO PUSH2 0x1F0C JUMPI PUSH2 0x1F0C PUSH2 0x2403 JUMP JUMPDEST EQ ISZERO PUSH2 0x1F30 JUMPI PUSH1 0x0 PUSH2 0x1F1E DUP3 DUP14 PUSH2 0x48B JUMP JUMPDEST SWAP2 POP PUSH2 0x1F2C SWAP1 POP DUP2 DUP4 PUSH2 0x278A JUMP JUMPDEST SWAP2 POP POP JUMPDEST PUSH2 0x1DB4 JUMP JUMPDEST PUSH2 0x1F3D PUSH2 0x22C8 JUMP JUMPDEST PUSH1 0x0 PUSH2 0x1F47 PUSH2 0x22C8 JUMP JUMPDEST PUSH2 0x1F4F PUSH2 0x2195 JUMP JUMPDEST PUSH1 0x0 DUP1 DUP1 DUP10 DUP1 JUMPDEST PUSH2 0x1F60 DUP11 DUP4 PUSH2 0x278A JUMP JUMPDEST DUP2 LT ISZERO PUSH2 0x213 JUMPI PUSH2 0x1F71 DUP2 DUP13 PUSH2 0x225 JUMP JUMPDEST SWAP2 SWAP7 POP SWAP5 POP SWAP3 POP PUSH2 0x1F82 DUP4 DUP3 PUSH2 0x278A JUMP JUMPDEST SWAP1 POP DUP5 PUSH1 0x1 EQ ISZERO PUSH2 0x1FAA JUMPI PUSH2 0x1F99 DUP2 DUP13 DUP10 DUP10 PUSH2 0x10CF JUMP JUMPDEST PUSH2 0x1FA3 SWAP1 DUP3 PUSH2 0x278A JUMP JUMPDEST SWAP1 POP PUSH2 0x1F56 JUMP JUMPDEST DUP5 PUSH1 0x2 EQ ISZERO PUSH2 0x1FBF JUMPI PUSH2 0x1F99 DUP2 DUP13 DUP10 DUP10 PUSH2 0x2130 JUMP JUMPDEST DUP5 PUSH1 0x3 EQ ISZERO PUSH2 0x1FD4 JUMPI PUSH2 0x1F99 DUP2 DUP13 DUP10 DUP10 PUSH2 0x213F JUMP JUMPDEST PUSH1 0x1 DUP5 PUSH1 0x5 DUP2 GT ISZERO PUSH2 0x1FE8 JUMPI PUSH2 0x1FE8 PUSH2 0x2403 JUMP JUMPDEST EQ ISZERO PUSH2 0x200C JUMPI PUSH1 0x0 PUSH2 0x1FFA DUP3 DUP14 PUSH2 0x370 JUMP JUMPDEST SWAP2 POP PUSH2 0x2008 SWAP1 POP DUP2 DUP4 PUSH2 0x278A JUMP JUMPDEST SWAP2 POP POP JUMPDEST PUSH1 0x5 DUP5 PUSH1 0x5 DUP2 GT ISZERO PUSH2 0x2020 JUMPI PUSH2 0x2020 PUSH2 0x2403 JUMP JUMPDEST EQ ISZERO PUSH2 0x2044 JUMPI PUSH1 0x0 PUSH2 0x2032 DUP3 DUP14 PUSH2 0x38F JUMP JUMPDEST SWAP2 POP PUSH2 0x2040 SWAP1 POP DUP2 DUP4 PUSH2 0x278A JUMP JUMPDEST SWAP2 POP POP JUMPDEST PUSH1 0x0 DUP5 PUSH1 0x5 DUP2 GT ISZERO PUSH2 0x2058 JUMPI PUSH2 0x2058 PUSH2 0x2403 JUMP JUMPDEST EQ ISZERO PUSH2 0x207C JUMPI PUSH1 0x0 PUSH2 0x206A DUP3 DUP14 PUSH2 0x3A1 JUMP JUMPDEST SWAP2 POP PUSH2 0x2078 SWAP1 POP DUP2 DUP4 PUSH2 0x278A JUMP JUMPDEST SWAP2 POP POP JUMPDEST PUSH1 0x2 DUP5 PUSH1 0x5 DUP2 GT ISZERO PUSH2 0x2090 JUMPI PUSH2 0x2090 PUSH2 0x2403 JUMP JUMPDEST EQ ISZERO PUSH2 0x20B4 JUMPI PUSH1 0x0 PUSH2 0x20A2 DUP3 DUP14 PUSH2 0x48B JUMP JUMPDEST SWAP2 POP PUSH2 0x20B0 SWAP1 POP DUP2 DUP4 PUSH2 0x278A JUMP JUMPDEST SWAP2 POP POP JUMPDEST PUSH2 0x1F56 JUMP JUMPDEST PUSH2 0x1051 PUSH2 0x22AA JUMP JUMPDEST PUSH1 0x0 DUP1 PUSH1 0x0 PUSH2 0x20D0 DUP8 DUP8 PUSH2 0x1BB4 JUMP JUMPDEST SWAP2 POP SWAP2 POP PUSH2 0x20DC DUP6 ISZERO SWAP1 JUMP JUMPDEST ISZERO PUSH2 0x20EB JUMPI PUSH1 0x1 DUP5 PUSH1 0x4 PUSH2 0x295 JUMP JUMPDEST PUSH1 0x60 DUP6 ADD MLOAD PUSH1 0x80 DUP6 ADD MLOAD DUP2 MLOAD DUP5 SWAP3 SWAP2 PUSH2 0x2103 SWAP2 PUSH2 0x27DA JUMP JUMPDEST DUP2 MLOAD DUP2 LT PUSH2 0x2113 JUMPI PUSH2 0x2113 PUSH2 0x27C4 JUMP JUMPDEST PUSH1 0x3 SWAP3 SWAP1 SWAP3 SIGNEXTEND PUSH1 0x20 SWAP3 DUP4 MUL SWAP2 SWAP1 SWAP2 ADD SWAP1 SWAP2 ADD MSTORE PUSH1 0x0 DUP5 PUSH1 0x4 PUSH2 0x10BA JUMP JUMPDEST PUSH1 0x0 DUP1 PUSH1 0x0 PUSH2 0x2EE DUP8 DUP8 PUSH2 0x1B4A JUMP JUMPDEST PUSH1 0x0 DUP1 PUSH1 0x0 PUSH2 0x33A DUP8 DUP8 PUSH2 0x1B4A JUMP JUMPDEST PUSH1 0x40 MLOAD DUP1 PUSH1 0x60 ADD PUSH1 0x40 MSTORE DUP1 PUSH2 0x2161 PUSH2 0x21B3 JUMP JUMPDEST DUP2 MSTORE PUSH1 0x20 ADD PUSH2 0x216E PUSH2 0x21E1 JUMP JUMPDEST DUP2 MSTORE PUSH1 0x20 ADD PUSH2 0x2190 PUSH1 0x40 MLOAD DUP1 PUSH1 0x40 ADD PUSH1 0x40 MSTORE DUP1 PUSH1 0x60 DUP2 MSTORE PUSH1 0x20 ADD PUSH1 0x60 DUP2 MSTORE POP SWAP1 JUMP JUMPDEST SWAP1 MSTORE SWAP1 JUMP JUMPDEST PUSH1 0x40 MLOAD DUP1 PUSH1 0x80 ADD PUSH1 0x40 MSTORE DUP1 PUSH1 0x4 SWAP1 PUSH1 0x20 DUP3 MUL DUP1 CALLDATASIZE DUP4 CALLDATACOPY POP SWAP2 SWAP3 SWAP2 POP POP JUMP JUMPDEST PUSH1 0x40 MLOAD DUP1 PUSH1 0x80 ADD PUSH1 0x40 MSTORE DUP1 PUSH1 0x60 DUP2 MSTORE PUSH1 0x20 ADD PUSH1 0x60 DUP2 MSTORE PUSH1 0x20 ADD PUSH2 0x21D4 PUSH2 0x2264 JUMP JUMPDEST DUP2 MSTORE PUSH1 0x20 ADD PUSH1 0x60 DUP2 MSTORE POP SWAP1 JUMP JUMPDEST PUSH1 0x40 MLOAD DUP1 PUSH1 0x60 ADD PUSH1 0x40 MSTORE DUP1 PUSH1 0x60 DUP2 MSTORE PUSH1 0x20 ADD PUSH2 0x21FB PUSH2 0x21B3 JUMP JUMPDEST DUP2 MSTORE PUSH1 0x20 ADD PUSH2 0x2190 PUSH2 0x21B3 JUMP JUMPDEST PUSH1 0x40 MLOAD DUP1 PUSH1 0xA0 ADD PUSH1 0x40 MSTORE DUP1 PUSH1 0x5 SWAP1 PUSH1 0x20 DUP3 MUL DUP1 CALLDATASIZE DUP4 CALLDATACOPY POP SWAP2 SWAP3 SWAP2 POP POP JUMP JUMPDEST PUSH1 0x40 MLOAD DUP1 PUSH1 0x60 ADD PUSH1 0x40 MSTORE DUP1 PUSH1 0x3 SWAP1 PUSH1 0x20 DUP3 MUL DUP1 CALLDATASIZE DUP4 CALLDATACOPY POP SWAP2 SWAP3 SWAP2 POP POP JUMP JUMPDEST PUSH1 0x40 MLOAD DUP1 PUSH1 0x40 ADD PUSH1 0x40 MSTORE DUP1 PUSH2 0x2257 PUSH2 0x22AA JUMP JUMPDEST DUP2 MSTORE PUSH1 0x20 ADD PUSH2 0x2190 PUSH2 0x22C8 JUMP JUMPDEST PUSH1 0x40 DUP1 MLOAD PUSH1 0xA0 DUP2 ADD SWAP1 SWAP2 MSTORE DUP1 PUSH1 0x0 DUP2 MSTORE PUSH1 0x20 ADD PUSH1 0x0 DUP2 MSTORE PUSH1 0x20 ADD PUSH1 0x0 DUP2 MSTORE PUSH1 0x20 ADD PUSH1 0x0 PUSH2 0x21D4 JUMP JUMPDEST PUSH1 0x40 MLOAD DUP1 PUSH1 0xC0 ADD PUSH1 0x40 MSTORE DUP1 PUSH1 0x6 SWAP1 PUSH1 0x20 DUP3 MUL DUP1 CALLDATASIZE DUP4 CALLDATACOPY POP SWAP2 SWAP3 SWAP2 POP POP JUMP JUMPDEST PUSH1 0x40 DUP1 MLOAD PUSH1 0x80 DUP2 ADD DUP3 MSTORE PUSH1 0x60 DUP1 DUP3 MSTORE PUSH1 0x20 DUP3 ADD MSTORE SWAP1 DUP2 ADD PUSH1 0x0 PUSH2 0x21D4 JUMP JUMPDEST PUSH1 0x40 MLOAD DUP1 PUSH1 0x60 ADD PUSH1 0x40 MSTORE DUP1 PUSH1 0x60 DUP2 MSTORE PUSH1 0x20 ADD PUSH2 0x22E2 PUSH2 0x22AA JUMP JUMPDEST DUP2 MSTORE PUSH1 0x20 ADD PUSH2 0x2190 PUSH2 0x22AA JUMP JUMPDEST PUSH4 0x4E487B71 PUSH1 0xE0 SHL PUSH1 0x0 MSTORE PUSH1 0x41 PUSH1 0x4 MSTORE PUSH1 0x24 PUSH1 0x0 REVERT JUMPDEST PUSH1 0x0 PUSH1 0x20 DUP3 DUP5 SUB SLT ISZERO PUSH2 0x2317 JUMPI PUSH1 0x0 DUP1 REVERT JUMPDEST DUP2 CALLDATALOAD PUSH8 0xFFFFFFFFFFFFFFFF DUP1 DUP3 GT ISZERO PUSH2 0x232F JUMPI PUSH1 0x0 DUP1 REVERT JUMPDEST DUP2 DUP5 ADD SWAP2 POP DUP5 PUSH1 0x1F DUP4 ADD SLT PUSH2 0x2343 JUMPI PUSH1 0x0 DUP1 REVERT JUMPDEST DUP2 CALLDATALOAD DUP2 DUP2 GT ISZERO PUSH2 0x2355 JUMPI PUSH2 0x2355 PUSH2 0x22EF JUMP JUMPDEST PUSH1 0x40 MLOAD PUSH1 0x1F DUP3 ADD PUSH1 0x1F NOT SWAP1 DUP2 AND PUSH1 0x3F ADD AND DUP2 ADD SWAP1 DUP4 DUP3 GT DUP2 DUP4 LT OR ISZERO PUSH2 0x237D JUMPI PUSH2 0x237D PUSH2 0x22EF JUMP JUMPDEST DUP2 PUSH1 0x40 MSTORE DUP3 DUP2 MSTORE DUP8 PUSH1 0x20 DUP5 DUP8 ADD ADD GT ISZERO PUSH2 0x2396 JUMPI PUSH1 0x0 DUP1 REVERT JUMPDEST DUP3 PUSH1 0x20 DUP7 ADD PUSH1 0x20 DUP4 ADD CALLDATACOPY PUSH1 0x0 SWAP3 DUP2 ADD PUSH1 0x20 ADD SWAP3 SWAP1 SWAP3 MSTORE POP SWAP6 SWAP5 POP POP POP POP POP JUMP JUMPDEST PUSH1 0x0 DUP2 MLOAD DUP1 DUP5 MSTORE PUSH1 0x0 JUMPDEST DUP2 DUP2 LT ISZERO PUSH2 0x23DC JUMPI PUSH1 0x20 DUP2 DUP6 ADD DUP2 ADD MLOAD DUP7 DUP4 ADD DUP3 ADD MSTORE ADD PUSH2 0x23C0 JUMP JUMPDEST DUP2 DUP2 GT ISZERO PUSH2 0x23EE JUMPI PUSH1 0x0 PUSH1 0x20 DUP4 DUP8 ADD ADD MSTORE JUMPDEST POP PUSH1 0x1F ADD PUSH1 0x1F NOT AND SWAP3 SWAP1 SWAP3 ADD PUSH1 0x20 ADD SWAP3 SWAP2 POP POP JUMP JUMPDEST PUSH4 0x4E487B71 PUSH1 0xE0 SHL PUSH1 0x0 MSTORE PUSH1 0x21 PUSH1 0x4 MSTORE PUSH1 0x24 PUSH1 0x0 REVERT JUMPDEST PUSH1 0x7 DUP2 LT PUSH2 0x2437 JUMPI PUSH4 0x4E487B71 PUSH1 0xE0 SHL PUSH1 0x0 MSTORE PUSH1 0x21 PUSH1 0x4 MSTORE PUSH1 0x24 PUSH1 0x0 REVERT JUMPDEST POP JUMP JUMPDEST PUSH1 0x0 DUP3 DUP3 MLOAD DUP1 DUP6 MSTORE PUSH1 0x20 DUP1 DUP7 ADD SWAP6 POP DUP1 DUP3 PUSH1 0x5 SHL DUP5 ADD ADD DUP2 DUP7 ADD PUSH1 0x0 JUMPDEST DUP5 DUP2 LT ISZERO PUSH2 0x24C0 JUMPI PUSH1 0x1F NOT DUP7 DUP5 SUB ADD DUP10 MSTORE DUP2 MLOAD PUSH1 0x60 DUP2 MLOAD PUSH2 0x2477 DUP2 PUSH2 0x2419 JUMP JUMPDEST DUP6 MSTORE DUP2 DUP7 ADD MLOAD DUP7 DUP7 ADD DUP3 SWAP1 MSTORE PUSH2 0x248F DUP3 DUP8 ADD DUP3 PUSH2 0x23B6 JUMP JUMPDEST SWAP2 POP POP PUSH1 0x40 DUP1 DUP4 ADD MLOAD SWAP3 POP DUP6 DUP3 SUB DUP2 DUP8 ADD MSTORE POP PUSH2 0x24AC DUP2 DUP4 PUSH2 0x23B6 JUMP JUMPDEST SWAP11 DUP7 ADD SWAP11 SWAP5 POP POP POP SWAP1 DUP4 ADD SWAP1 PUSH1 0x1 ADD PUSH2 0x2457 JUMP JUMPDEST POP SWAP1 SWAP8 SWAP7 POP POP POP POP POP POP POP JUMP JUMPDEST PUSH1 0x0 DUP2 MLOAD PUSH1 0x80 DUP5 MSTORE PUSH2 0x24E2 PUSH1 0x80 DUP6 ADD DUP3 PUSH2 0x23B6 JUMP JUMPDEST SWAP1 POP PUSH1 0x20 DUP4 ADD MLOAD DUP5 DUP3 SUB PUSH1 0x20 DUP7 ADD MSTORE PUSH2 0x24FB DUP3 DUP3 PUSH2 0x23B6 JUMP JUMPDEST SWAP2 POP POP PUSH1 0x40 DUP4 ADD MLOAD DUP5 DUP3 SUB PUSH1 0x40 DUP7 ADD MSTORE DUP1 MLOAD PUSH2 0x2516 DUP2 PUSH2 0x2419 JUMP JUMPDEST DUP3 MSTORE PUSH1 0x20 DUP2 ADD MLOAD PUSH2 0x2526 DUP2 PUSH2 0x2419 JUMP JUMPDEST PUSH1 0x20 DUP4 ADD MSTORE PUSH1 0x40 DUP2 ADD MLOAD PUSH2 0x2539 DUP2 PUSH2 0x2419 JUMP JUMPDEST PUSH1 0x40 DUP4 ADD MSTORE PUSH1 0x60 DUP2 ADD MLOAD PUSH2 0x254C DUP2 PUSH2 0x2419 JUMP JUMPDEST DUP1 PUSH1 0x60 DUP5 ADD MSTORE POP PUSH1 0x80 DUP2 ADD MLOAD SWAP1 POP PUSH1 0xA0 PUSH1 0x80 DUP4 ADD MSTORE PUSH2 0x256E PUSH1 0xA0 DUP4 ADD DUP3 PUSH2 0x23B6 JUMP JUMPDEST SWAP2 POP POP PUSH1 0x60 DUP4 ADD MLOAD DUP5 DUP3 SUB PUSH1 0x60 DUP7 ADD MSTORE PUSH2 0x2588 DUP3 DUP3 PUSH2 0x243A JUMP JUMPDEST SWAP6 SWAP5 POP POP POP POP POP JUMP JUMPDEST PUSH1 0x0 DUP2 MLOAD PUSH1 0x80 DUP5 MSTORE PUSH2 0x25A6 PUSH1 0x80 DUP6 ADD DUP3 PUSH2 0x23B6 JUMP JUMPDEST SWAP1 POP PUSH1 0x20 DUP1 DUP5 ADD MLOAD DUP6 DUP4 SUB DUP3 DUP8 ADD MSTORE PUSH2 0x25BF DUP4 DUP3 PUSH2 0x23B6 JUMP JUMPDEST SWAP3 POP POP PUSH1 0x40 DUP5 ADD MLOAD PUSH2 0x25D0 DUP2 PUSH2 0x2419 JUMP JUMPDEST PUSH1 0x40 DUP7 ADD MSTORE PUSH1 0x60 DUP5 DUP2 ADD MLOAD DUP7 DUP5 SUB SWAP2 DUP8 ADD SWAP2 SWAP1 SWAP2 MSTORE DUP1 MLOAD DUP1 DUP5 MSTORE SWAP1 DUP3 ADD SWAP3 PUSH1 0x0 SWAP2 SWAP1 DUP4 ADD SWAP1 JUMPDEST DUP1 DUP4 LT ISZERO PUSH2 0x1828 JUMPI DUP5 MLOAD PUSH1 0x3 SIGNEXTEND DUP3 MSTORE SWAP4 DUP4 ADD SWAP4 PUSH1 0x1 SWAP3 SWAP1 SWAP3 ADD SWAP2 SWAP1 DUP4 ADD SWAP1 PUSH2 0x25F6 JUMP JUMPDEST PUSH1 0x0 PUSH1 0x20 DUP1 DUP4 MSTORE DUP4 MLOAD PUSH1 0x60 DUP1 DUP4 DUP7 ADD MSTORE PUSH2 0x2636 PUSH1 0x80 DUP7 ADD DUP4 PUSH2 0x24CD JUMP JUMPDEST SWAP2 POP DUP3 DUP7 ADD MLOAD PUSH1 0x1F NOT PUSH1 0x40 DUP2 DUP9 DUP7 SUB ADD DUP2 DUP10 ADD MSTORE DUP3 MLOAD DUP5 DUP7 MSTORE PUSH2 0x265B DUP6 DUP8 ADD DUP3 PUSH2 0x23B6 JUMP JUMPDEST SWAP1 POP DUP7 DUP5 ADD MLOAD DUP7 DUP3 SUB DUP9 DUP9 ADD MSTORE PUSH2 0x2672 DUP3 DUP3 PUSH2 0x24CD JUMP JUMPDEST SWAP2 POP POP DUP2 DUP5 ADD MLOAD SWAP4 POP DUP6 DUP2 SUB DUP3 DUP8 ADD MSTORE PUSH2 0x268C DUP2 DUP6 PUSH2 0x24CD JUMP JUMPDEST DUP11 DUP4 ADD MLOAD DUP11 DUP3 SUB SWAP1 SWAP5 ADD DUP7 DUP12 ADD MSTORE DUP4 MLOAD DUP4 DUP3 MSTORE DUP1 MLOAD DUP5 DUP4 ADD DUP2 SWAP1 MSTORE SWAP2 SWAP8 POP SWAP4 SWAP5 POP PUSH1 0x5 DUP2 SWAP1 SHL DUP8 ADD DUP7 ADD SWAP4 DUP9 ADD SWAP2 POP DUP6 DUP8 ADD SWAP1 PUSH1 0x0 JUMPDEST DUP2 DUP2 LT ISZERO PUSH2 0x274C JUMPI DUP9 DUP7 SUB PUSH1 0x5F NOT ADD DUP4 MSTORE DUP4 MLOAD DUP1 MLOAD DUP7 DUP9 MSTORE PUSH2 0x26E6 DUP8 DUP10 ADD DUP3 PUSH2 0x2591 JUMP JUMPDEST SWAP1 POP DUP12 DUP3 ADD MLOAD SWAP2 POP DUP8 DUP2 SUB DUP13 DUP10 ADD MSTORE DUP2 MLOAD DUP11 DUP3 MSTORE PUSH2 0x2706 DUP12 DUP4 ADD DUP3 PUSH2 0x23B6 JUMP JUMPDEST SWAP1 POP DUP13 DUP4 ADD MLOAD DUP3 DUP3 SUB DUP15 DUP5 ADD MSTORE PUSH2 0x271D DUP3 DUP3 PUSH2 0x2591 JUMP JUMPDEST SWAP2 POP POP DUP8 DUP4 ADD MLOAD SWAP3 POP DUP2 DUP2 SUB DUP9 DUP4 ADD MSTORE PUSH2 0x2737 DUP2 DUP5 PUSH2 0x2591 JUMP JUMPDEST SWAP9 POP POP POP SWAP4 DUP11 ADD SWAP4 POP SWAP2 DUP10 ADD SWAP2 PUSH1 0x1 ADD PUSH2 0x26C2 JUMP JUMPDEST POP POP POP POP POP DUP5 DUP3 ADD MLOAD SWAP3 POP DUP4 DUP2 SUB DUP6 DUP6 ADD MSTORE PUSH2 0x2768 DUP2 DUP5 PUSH2 0x243A JUMP JUMPDEST SWAP9 SWAP8 POP POP POP POP POP POP POP POP JUMP JUMPDEST PUSH4 0x4E487B71 PUSH1 0xE0 SHL PUSH1 0x0 MSTORE PUSH1 0x11 PUSH1 0x4 MSTORE PUSH1 0x24 PUSH1 0x0 REVERT JUMPDEST PUSH1 0x0 DUP3 NOT DUP3 GT ISZERO PUSH2 0x279D JUMPI PUSH2 0x279D PUSH2 0x2774 JUMP JUMPDEST POP ADD SWAP1 JUMP JUMPDEST PUSH1 0x0 DUP3 PUSH2 0x27BF JUMPI PUSH4 0x4E487B71 PUSH1 0xE0 SHL PUSH1 0x0 MSTORE PUSH1 0x12 PUSH1 0x4 MSTORE PUSH1 0x24 PUSH1 0x0 REVERT JUMPDEST POP DIV SWAP1 JUMP JUMPDEST PUSH4 0x4E487B71 PUSH1 0xE0 SHL PUSH1 0x0 MSTORE PUSH1 0x32 PUSH1 0x4 MSTORE PUSH1 0x24 PUSH1 0x0 REVERT JUMPDEST PUSH1 0x0 DUP3 DUP3 LT ISZERO PUSH2 0x27EC JUMPI PUSH2 0x27EC PUSH2 0x2774 JUMP JUMPDEST POP SUB SWAP1 JUMP JUMPDEST PUSH4 0x4E487B71 PUSH1 0xE0 SHL PUSH1 0x0 MSTORE PUSH1 0x1 PUSH1 0x4 MSTORE PUSH1 0x24 PUSH1 0x0 REVERT JUMPDEST PUSH1 0x1 DUP2 DUP2 JUMPDEST DUP1 DUP6 GT ISZERO PUSH2 0x2842 JUMPI DUP2 PUSH1 0x0 NOT DIV DUP3 GT ISZERO PUSH2 0x2828 JUMPI PUSH2 0x2828 PUSH2 0x2774 JUMP JUMPDEST DUP1 DUP6 AND ISZERO PUSH2 0x2835 JUMPI SWAP2 DUP2 MUL SWAP2 JUMPDEST SWAP4 DUP5 SHR SWAP4 SWAP1 DUP1 MUL SWAP1 PUSH2 0x280C JUMP JUMPDEST POP SWAP3 POP SWAP3 SWAP1 POP JUMP JUMPDEST PUSH1 0x0 DUP3 PUSH2 0x2859 JUMPI POP PUSH1 0x1 PUSH2 0x6A JUMP JUMPDEST DUP2 PUSH2 0x2866 JUMPI POP PUSH1 0x0 PUSH2 0x6A JUMP JUMPDEST DUP2 PUSH1 0x1 DUP2 EQ PUSH2 0x287C JUMPI PUSH1 0x2 DUP2 EQ PUSH2 0x2886 JUMPI PUSH2 0x28A2 JUMP JUMPDEST PUSH1 0x1 SWAP2 POP POP PUSH2 0x6A JUMP JUMPDEST PUSH1 0xFF DUP5 GT ISZERO PUSH2 0x2897 JUMPI PUSH2 0x2897 PUSH2 0x2774 JUMP JUMPDEST POP POP PUSH1 0x1 DUP3 SHL PUSH2 0x6A JUMP JUMPDEST POP PUSH1 0x20 DUP4 LT PUSH2 0x133 DUP4 LT AND PUSH1 0x4E DUP5 LT PUSH1 0xB DUP5 LT AND OR ISZERO PUSH2 0x28C5 JUMPI POP DUP2 DUP2 EXP PUSH2 0x6A JUMP JUMPDEST PUSH2 0x28CF DUP4 DUP4 PUSH2 0x2807 JUMP JUMPDEST DUP1 PUSH1 0x0 NOT DIV DUP3 GT ISZERO PUSH2 0x28E3 JUMPI PUSH2 0x28E3 PUSH2 0x2774 JUMP JUMPDEST MUL SWAP4 SWAP3 POP POP POP JUMP JUMPDEST PUSH1 0x0 PUSH2 0x28F7 DUP4 DUP4 PUSH2 0x284A JUMP JUMPDEST SWAP4 SWAP3 POP POP POP JUMP INVALID LOG2 PUSH5 0x6970667358 0x22 SLT KECCAK256 0xB1 BYTE CALL PUSH17 0xB03DD3C13A4C79F83B93370780E3F7F79 0xF9 0xFB MSTORE8 0x26 0x1F 0xD4 PUSH2 0x1ECD PUSH3 0x566473 PUSH16 0x6C634300080A00330000000000000000 ",
  "sha1": "788d7d43231c67e6fc2074ff0f7142c2cc204705",
  "source": "// SPDX-License-Identifier: Apache-2.0\npragma solidity ^0.8.2;\npragma experimental ABIEncoderV2;\nimport \"./test.sol\";\n\n\ncontract SolTest{\n    function decodeMainMessag(bytes memory message) public pure returns(TestMainMessage.Data memory) {\n        return TestMainMessage.decode(message);\n    }\n}\n",
  "sourcePath": "contracts/contract.sol",
  "type": "contract"
}